:1000000000180020C1000000652500003125000017
:100010003125000031250000312500003125000088
:100020003125000031250000312500006525000044
:100030006525000031250000652500002125000010
:100040006525000065250000652500006525000088
:100050006525000065250000652500006525000078
:100060006525000065250000652500006525000068
:10007000A52B000045300000DD350000652500009F
:100080006525000065250000652500006525000048
:100090006525000065250000FD3A0000652500008B
:1000A0003D13000065250000652500006525000062
:1000B0006525000065250000652500006525000018
:1000C00038B502F053FA454A454B1A60454A464B4B
:1000D0001A60464A464B1A60464B0822197811426C
:1000E00002D019780A431A70434B2A221A7000234F
:1000F000424A43499A188A4204D24249C9580433B1
:100100001160F5E7404B41491A1F181D00238A4230
:1001100002D21360031CF6E73D493E4A5958101CB1
:1001200099500433C02BF7D100239A083A49920022
:10013000521803211940C9001568FF248C40A543BB
:100140002C1C80258D40291C214301331160202B5C
:10015000EBD1324B8A221860314B1A70314B24227A
:100160005A70A0221A709A799107FCD59A79D5060F
:10017000FCD498790C212B4A01400829F9D103219C
:100180001171402151719A799106FCD59A795506E1
:10019000FCD52549254A1160224A20211170997900
:1001A0000C220A400C2AFAD1214A224B1A60224A18
:1001B000224B1A60224B00221A60224B07221A603F
:1001C000214A224B1A6062B600F090FF04F042FB15
:1001D00002F0D2F902F04AF9FEE7C046300004F01E
:1001E00034800440823F0000388004400100000F4A
:1001F0003C80044002D0074000E00740700200202D
:10020000600400205055000064040020E80800202D
:100210000000000000F9FF1F00E400E008ED00E02E
:100220000050064000400640000001104480044099
:10023000C0000505048004407FBB000014E000E01E
:1002400018E000E010E000E00000202020ED00E0D9
:10025000FFFFFFFFFFFFFFFFFFFFFFFFFFFFFFFFAE
:10026000FFFFFFFFFFFFFFFFFFFFFFFFFFFFFFFF9E
:10027000FFFFFFFFFFFFFFFFFFFFFFFFFFFFFFFF8E
:10028000FFFFFFFFFFFFFFFFFFFFFFFFFFFFFFFF7E
:10029000FFFFFFFFFFFFFFFFFFFFFFFFFFFFFFFF6E
:1002A000FFFFFFFFFFFFFFFFFFFFFFFFFFFFFFFF5E
:1002B000FFFFFFFFFFFFFFFFFFFFFFFFFFFFFFFF4E
:1002C000FFFFFFFFFFFFFFFFFFFFFFFFFFFFFFFF3E
:1002D000FFFFFFFFFFFFFFFFFFFFFFFFFFFFFFFF2E
:1002E000FFFFFFFFFFFFFFFFFFFFFFFFFFFFFFFF1E
:1002F000FFFFFFFFFFFFFFFFFFFFFFFFFFFFFFFF0E
:10030000FFFFFFFFFFFFFFFFFFFFFFFFFFFFFFFFFD
:10031000FFFFFFFFFFFFFFFFFFFFFFFFFFFFFFFFED
:10032000FFFFFFFFFFFFFFFFFFFFFFFFFFFFFFFFDD
:10033000FFFFFFFFFFFFFFFFFFFFFFFFFFFFFFFFCD
:10034000FFFFFFFFFFFFFFFFFFFFFFFFFFFFFFFFBD
:10035000FFFFFFFFFFFFFFFFFFFFFFFFFFFFFFFFAD
:10036000FFFFFFFFFFFFFFFFFFFFFFFFFFFFFFFF9D
:10037000FFFFFFFFFFFFFFFFFFFFFFFFFFFFFFFF8D
:10038000FFFFFFFFFFFFFFFFFFFFFFFFFFFFFFFF7D
:10039000FFFFFFFFFFFFFFFFFFFFFFFFFFFFFFFF6D
:1003A000FFFFFFFFFFFFFFFFFFFFFFFFFFFFFFFF5D
:1003B000FFFFFFFFFFFFFFFFFFFFFFFFFFFFFFFF4D
:1003C000FFFFFFFFFFFFFFFFFFFFFFFFFFFFFFFF3D
:1003D000FFFFFFFFFFFFFFFFFFFFFFFFFFFFFFFF2D
:1003E000FFFFFFFFFFFFFFFFFFFFFFFFFFFFFFFF1D
:1003F000FFFFFFFFFFFFFFFFFFFFFFFFFFFFFFFF0D
:10040000FFFFFFFFFFFFFFFFFFFFFFFFDEF9FFFF23
:1004100010B5064C2378002B07D1054B002B02D0DA
:10042000044800E000BF0123237010BD60040020D9
:10043000000000005055000008B5084B002B03D009
:100440000748084900E000BF07480368002B03D0B5
:10045000064B002B00D0984708BDC04600000000A6
:1004600050550000640400206004002000000000DB
:1004700010B5041C00F0FCFD2368C01A10BDFFFF7E
:1004800010B50948FFF7F4FF084C20600E2000F07B
:1004900099FDA36841424141C9B201330C2061601A
:1004A000A36000F06FFD10BD200500209C0400201B
:1004B00008B5011C014801F0CDFF08BDEC04002087
:1004C00008B5011C014801F0BEFF08BDEC04002086
:1004D00000B58DB0021C084904A804F0CFFA04A9A5
:1004E000684601F031FF6846FFF7EAFF684601F011
:1004F000E7FE0DB000BDC0460851000000B58DB04C
:10050000021C084904A804F0B9FA04A9684601F0DD
:100510001BFF6846FFF7D4FF684601F0D1FE0DB01F
:1005200000BDC0460C51000030B5134B85B01D789E
:10053000124C002D0AD02068A16801F0EDFA01F0FC
:100540001DFB201CF02101F039FF12E00C48A268CD
:10055000036821685B68984701F040FD291C6846E4
:1005600001F0F2FE201C694601F020FF684601F010
:10057000A7FE05B030BDC0461C050020EC040020DD
:10058000A806002008B5054B0A201B78002B00D0D8
:10059000F720FFF78DFFFFF7C7FF08BD1C05002000
:1005A00010B5141CCAB01A0CD2B2031C00910194ED
:1005B0000AA8084904F062FA0AA906A801F0C4FED4
:1005C00006A8FFF77DFF06A801F07AFEFFF7DAFF25
:1005D0004AB010BD10510000031C413B192B01D83B
:1005E000203004E0031C613B192B01D82038C0B235
:1005F000704708B5FFF7F0FFFFF75AFFFFF7C2FF9C
:1006000008BDFFFF10B5054C0021201C2C2204F072
:1006100073F901235B42636010BDC046BC04002037
:1006200038B572B6FFF7EEFF0D4C0021201C1022EA
:1006300004F062F90B4B1A1C23CC23C2246814600B
:100640004C229A73084B53229A73084B47229A7391
:10065000074B41229A73074B4D229A7362B638BDFD
:10066000FC0400209C040020240500200C05002030
:10067000AC0400207C04002010B50B20012100F008
:10068000B3FC0C20012100F0AFFC0D20012100F093
:10069000ABFC1420002100F0A7FC0F20002100F08B
:1006A000A3FC0E20022100F09FFC0E200C49042226
:1006B00000F02AFC0B4B00221A700124FFF7B0FF58
:1006C000094B211C0D201C7000F05CFC211C0B2030
:1006D00000F058FC0C20211C00F054FC10BDC0465A
:1006E000810400001C050020E804002030B50B2028
:1006F00085B0012100F046FCFA24A400142000F08B
:1007000055FB051C1248FFF7B3FEFFF7E1FE202062
:10071000FFF7CEFE28B2FFF7DBFEFFF733FFE12342
:100720005B01013BFDD1013C002CE7D1211C0B20DA
:1007300000F028FC0749684601F006FE6846FFF70E
:10074000BFFE684601F0BCFDFFF71CFF05B030BDE1
:10075000200500201F5100007FB5041E5A2C16D121
:1007600072B600F085FCB04B1860FFF74BFFAF4B43
:1007700001221A7062B60025AD4B291C0B201D709A
:1007800000F000FC0C20291C00F0FCFBE9E05428E0
:100790000FD1A849684601F0D7FD6846FFF790FEE3
:1007A000684601F08DFDA048FFF762FEFFF7A6FE48
:1007B00036E1502800D1D4E0442803D10A2000F0CB
:1007C0007BFCCEE0031C313B082B07D89648FFF793
:1007D0004FFE2F3C954BA400E05023E1522811D14D
:1007E000924A00245368591C5160082902DCD91C24
:1007F00089008C58981CFFF76BFE3A20FFF758FED3
:10080000201CFDE0492819D1884B012252425A6030
:1008100000241D1C884B013BFDD18348FFF728FEB7
:10082000A300EB189860201C3130C0B20134FFF7F0
:100830003FFEFFF7A7FE092CECD1F3E0462802D1DA
:10084000FFF7EEFE8DE0562811D1FFF7C5FEFFF74A
:100850002FFE2020FFF72CFE7849684601F074FD3A
:100860006846FFF72DFE684601F02AFDD8E04728CC
:100870000BD1734C2068FFF72BFEFFF783FE00239C
:100880002360A36001232373CCE0412801D16D4B89
:100890001DE0422812D16448FFF7EAFD6A490022B0
:1008A000051C172001F04AFC201CFFF795FEFFF7FE
:1008B000FFFD2020FFF7FCFD281CA1E0532803D1F9
:1008C000172001F0CFFC4CE04D2806D15F4B0022F1
:1008D0001A609A6001221A7342E04E2820D1524ECB
:1008E0005B4A316868468B180093FFF7C1FD051C11
:1008F000201CFFF771FEFFF7DBFD2020FFF7D8FD7E
:10090000281CFFF7FBFDFFF73DFE301CFFF7B0FD95
:10091000A842FAD34F4801F0B5F801F02FF981E071
:1009200043280ED1142000F041FA4B4C0123191C2E
:10093000221C6E2800DC0023636051731173432076
:1009400017E0632804D1444B00225A731A7308E05D
:10095000452801D1404C12E04C2804D13F4B0122E4
:100960005A73201C05E06C2806D13C4B00225A73B8
:100970006C20FFF73EFE55E04A2809D1374CE3686A
:1009800020686168A268FFF70BFE0023A36049E0BE
:10099000552804D1FFF72DFEFFF7A8FE42E05128AD
:1009A00031D1FFF719FEFFF783FD2D49684601F0AD
:1009B000CBFC6846FFF784FD684601F081FC0F2000
:1009C00000F0F4F9FFF784FD2649684601F0BCFC0D
:1009D0006846FFF775FD684601F072FC142000F0D0
:1009E000E5F9FFF775FD2049684601F0ADFC684662
:1009F000FFF766FD684601F063FC0E2000F0D6F9B3
:100A0000FFF766FD0CE01949684601F09DFC684659
:100A1000FFF756FD684601F053FC201CFFF748FD28
:100A2000FFF7B0FD7FBDC04620050020BC040020BC
:100A3000E804002023510000102E00002651000081
:100A40000C050020AC040020881300007C0400206A
:100A5000F0D8FFFF09903C63240500209C0400208F
:100A6000285100002C510000385100004351000073
:100A7000F0B5624C87B021780D2000F083FA604D0C
:100A80002B7B002B13D00F2000F090F9E1239B006B
:100A900098420CDD5B48FFF7EBFCAB6801220133A9
:100AA000AB6000232B732378286053402370564D8E
:100AB0002B7B002B11D0162000F078F914280CDDC8
:100AC0005048FFF7D5FCAB6801220133AB6000232F
:100AD0002B732378286053402370012001F068F8BD
:100AE000061C701E8641F6B20196002E07D0474DB7
:100AF0002B7B002B03D0464B1F78012F6ED0454D2A
:100B00002B7B002B19D0142000F050F969680029C4
:100B100002D16E2802DC10E059280EDC3948FFF7BC
:100B2000A7FCAB6801220133AB6023786E685340A9
:100B300023707342734128606B60002472B6364B99
:100B40000021E3585A7B8A420BD09F688F4208DD10
:100B5000324A1D1C101CC4CDC4C02D6805609960AC
:100B6000012162B6002906D02C4B186859689A6892
:100B7000DB68FFF715FD0434142CDFD1019E002E35
:100B800022D0234B1B78042B18D1254B02A81978AF
:100B900001394B425941234BC9B21970002903D086
:100BA000F02101F015FC01E001F0CEFB02A91E4886
:100BB00001F0FCFB02A801F083FB05E0052B03D14B
:100BC000174B1878FFF7C8FD01F066F9002812D01E
:100BD00001F01AF9C0B2FFF7BFFD0CE00948FFF7BA
:100BE00047FCAB6828600133AB6000232B7323788C
:100BF0005F40277083E707B0F0BDC046E8040020DF
:100C00000C05002020050020AC0400207C040020FE
:100C10009608002024050020740200208C04002087
:100C2000980800201C050020EC04002010B500F0FE
:100C30001FFA064B064C18600021201C01F084FBB3
:100C4000201C0449044A03F0EDFD10BD20050020DE
:100C5000EC040020C122000070020020F0B51E4B01
:100C60001A6880231A40FAD172B61C4B19780029F1
:100C700030D01B490C681B490F681B493C190E6892
:100C80001A49A4190D681A496419086819492418E1
:100C9000096819486418A4B2184964080C43A4B23E
:100CA0000460174C174800682568174CAC46276845
:100CB000164C60442668164CC0192568154C8019DE
:100CC00024684019001980B240080143124889B2D3
:100CD00001601A7062B6F0BD24B0034035050020F3
:100CE00038B003403CB0034040B0034044B0034040
:100CF00048B003404CB003402CB003400080FFFFDD
:100D00005CB0034058B0034060B0034064B003409F
:100D100068B003406CB0034030B003401B4B1C4A2A
:100D200019781C4B082901D1002102E00A2903D1BE
:100D300038211160132206E00C2901D1342100E092
:100D40003C21116012221A60134B1A78134B002AAF
:100D500001D0002200E001221A60114B1A78114BD9
:100D6000012A01D880220CE0042A01D8842208E05C
:100D7000082A01D8852204E0102A01D8862200E042
:100D800087221A60084B01221A70704788020020DF
:100D900008B003400CB003403705002020B00340EA
:100DA0008902002024B0034035050020031C70B5E3
:100DB0000020272B32D81A4AD45CFF2C2ED0194B96
:100DC0001B78834201D0FFF749FF72B6164B102201
:100DD000610605D51968914319603F231C4002E064
:100DE00019680A431A60114B114D01221C602A70C8
:100DF00062B61E1C72B633681A0608D50D4B186809
:100E000000232B7062B60C4B1B78184106E02B7840
:100E1000002BDBD062B601F05FFBEBE770BDC04694
:100E200055510000350500200CB0034000B00340D0
:100E30003605002010B00340340500207047FFFF46
:100E400038B5074B1C681C60064BDA681D1CA307ED
:100E500000D590472B69620700D5984738BDC0463A
:100E6000A09004408C02002038B5244B244C1D680F
:100E70001D60636A2A0700D59847A36AEA0600D571
:100E80009847E36A6A0600D59847236B2A0600D57F
:100E90009847636BAA0600D59847E36BEA0700D52D
:100EA0009847A36DAA0700D59847E36D6A0700D558
:100EB0009847144B1D681D60A368EA0700D5984742
:100EC00063692A0600D59847A369EA0600D59847C2
:100ED000E3696A0700D59847236A2A0700D598472F
:100EE000A36BAA0700D59847236DAA0600D598479B
:100EF000636D6A0600D5984738BDC046A0B004406F
:100F00008C020020A0C0044070B5041E1A2C2CD8FE
:100F1000042A2AD8101C02F0BDFE0709050B0300A5
:100F20000B2306E00A2304E0082302E00C2300E080
:100F300009230C2262430D480D4E82180D48526859
:100F4000051CB8352E600C4DBC30056072B60B48E0
:100F50001568A40028400A4D1060615180214904A1
:100F600008431B041843106062B670BD8051000036
:100F7000410E000000F9FF1F690E0000FFFFF0FFA7
:100F80008C02002010B51A2818D80C2358430C4A9C
:100F9000835810181C7D027A224205D0002901D006
:100FA0001A710BE01A7209E043681A68002902D02E
:100FB00003210A4301E002218A431A6010BDC046A2
:100FC0008051000000231A280AD80C235843054AF0
:100FD00081581018027A0B7C13405A1E9341DBB2E1
:100FE000181C704780510000F0B51A283DD80C2716
:100FF0003D1C45431D4A54196368161C012901D044
:10100000042912D1784332583018147D007A2043D5
:101010001075A22252001A602022042901D11968F9
:1010200014E0196891430A1C1EE0AA58247A107D26
:10103000A0431075002902D08A1E012A12D88022EE
:1010400052001A60022903D11A6803210A430BE0F7
:1010500003290AD11A6802210A431A601A68012179
:101060008A4301E00422FF321A60F0BD8051000083
:1010700072B60C4B0C491A680C4B1B68096862B6B7
:10108000480104D532219142894149425B18FA2036
:10109000800043430648821A06484243920D98183E
:1010A0007047C04618E000E004ED00E0380500207D
:1010B0007FBB00005555010038B5041CFFF7D8FF71
:1010C000051C002C0FD0FFF7D3FF074B401B9842A5
:1010D00006D9013C002C06D0FA239B00ED18F2E75C
:1010E00001F0FAF9EFE738BDE70300001D4B80225D
:1010F000D20510B51A60802212061A601A4B002021
:1011000018601A491A4B1B4A1960282313601A4A9F
:101110001A4C13601A4A13601A4A13601A4A136071
:101120001A4A136009222260194C2060194C216070
:10113000194C2360194C2360194C2260194C206013
:101140001948016019490B6019490B60194B1A6065
:10115000FFF7E4FDC8204000FFF7AEFF00F0D8FB2A
:1011600010BDC04600E100E004800340FFBF000066
:10117000088003400C80034014800340008003403B
:101180001C800340248003402C80034034800340B3
:1011900004900340089003400C90034014900340D7
:1011A0000090034004A0034008A003400CA00340AB
:1011B00014A0034000A00340F0B50B4F02223B787F
:1011C0000A4E1A43D2000A4DB41860602878882469
:1011D000002800D0C82409040C43B4500122504018
:1011E000534028703B70F0BDB005002000F8FF1F91
:1011F00030060020431E10B5042B0FD872B6084AE3
:1012000099008858002807D044685B008C50054A34
:1012100001889C5A611A995262B600E0002010BD04
:101220009C0500208C080020431E0020042B09D8B8
:1012300072B6054A9B009B58002B02D001305B68B8
:10124000FAE762B67047C046F405002038B572B6BA
:101250000123164A9A18013A127811071CD5144A2C
:101260005C01A5589900002D05D11319083058606C
:10127000104BA3500AE001242143C9008C58002CD4
:101280000AD15318083058600B4B8B500B4B1A780F
:10129000013A1A7062B608E00133062BD9D162B662
:1012A000064B00221A7000F0A7FB38BDF052000078
:1012B00000F8FF1F88004000C800400026060020FC
:1012C000421E10B5042A30D8022380001843174B61
:1012D000C0001B1872B6164CA05C032809D802F097
:1012E000D9FC140216050833022011E0083304204B
:1012F0000EE01048920014580F4B002C01D11150F1
:1013000001E09858416099500EE0032000E005206C
:10131000A0540A1C08325A608822180700D5C82237
:10132000098809040A431A6062B610BD00F8FF1F5D
:1013300054050020F405002008060020F7B5B64942
:101340000C780E1CE4B262071FD5B44B1B78002B3F
:1013500018D0B34A1378DBB2002B05D0013BDBB2C7
:101360001370002B00D100BEAE4A1378DBB2002B05
:1013700006D0013BDBB21370002B01D100F05CFE04
:1013800000F0FCFBA44D04232B700825221C2A40EE
:1013900000D154E2A44BA54C1B78DBB21E099A087D
:1013A000002E00D0DDE1D50065192F686A68B80607
:1013B000000F01380C2800D9D0E102F075FC930130
:1013C0009301CF01CF01CF01CF01CF01CF01AC01FC
:1013D000CF01CF01CF010D0095491368954F526899
:1013E00095482960954D964900263B607A609BB2EE
:1013F00001222E602661A66102708B4218D8D0218E
:10140000C9008B4200D3E5E0812191408B4200D19D
:10141000C2E006D8802B00D1A9E0822B00D1ABE03E
:10142000F5E0884A934200D1C5E0A022D20017E03F
:1014300085498B4200D152E10DD8882109018B42A8
:1014400000D18EE090221201934200D0DFE0BA7802
:10145000724B1A7009E07D4A934200D1CFE07C4A7A
:101460000026934200D115E1D1E0A319196A0906BB
:1014700003D5586A083800F0BFFA0836A02EF4D118
:1014800000252E1C734AA858002805D043680193F4
:1014900000F0B2FA0198F7E76E496F4B6F4A485176
:1014A000E850A858002805D04368019300F0A4FA3A
:1014B0000198F7E76A4B6B4AE8507300D0526749CE
:1014C000694B4851F05C0238032807D802F0E2FB70
:1014D00002040204002200E001229A55013604357C
:1014E000052ECFD1614A002313700125161C604BD5
:1014F000EA18604B9200EB18013B1B781370190738
:1015000020D500F05BFA6B01002805D0E218083006
:101510005060594AE25003E0E050337801333370B1
:1015200000F04CFA0122AB001343DB00002805D089
:10153000E218083050603E4AE25003E0E050337851
:1015400001333370AB0002221A43D2000021A150B4
:101550000322134393400135E150062DC7D10E1CE1
:1015600098E02E4B454C1B78161C237093E0434C9F
:101570002670667002268EE0BB88052B47D83F4C4C
:101580003F4D9B00267066705B191B780226334224
:1015900000D180E022707EE0BA887F231340052BC3
:1015A00035DC7E88002E32D135499B005B181A78D5
:1015B00002218A4329E0BA887F231340052B26DCC9
:1015C0007E88002E23D12E4A9B009B181A78022178
:1015D0000A431AE07A88B9882A4B5C68002C16D036
:1015E0001888904209D15888884206D1120A032AE5
:1015F00001D126784FE01E894DE00C33EDE7224BF8
:101600001A68224B1A60BA78214B1A7042E01C4BC0
:101610000F221A7063E0C046802007402F0600208A
:10162000B10500206C0600209020074000F8FF1F45
:10163000C80040001C060020300600203C050020A9
:10164000810600000203000021200000212200008A
:10165000212300009C05002040050020F405002007
:10166000080600208C0800205405002026060020D3
:1016700030C80110F052000088004000270600200A
:10168000C0200740F852000038050020E008002084
:101690007C060020341CFB889E4200D91E1C371E8D
:1016A000402F00D94027201C391CFFF785FDE41985
:1016B000F61B03D1351C402F04D010E04025B54265
:1016C00000D9351C201C291CFFF776FD6419761BF8
:1016D00001D1402D03D1754D754B2C601E80012228
:1016E000744B3AE0744B1988744B994210D1002323
:1016F000D05C7349C8540133072BF9D10B68862B92
:1017000002D1704B0F221A700020011CFFF754FD0C
:101710006D4B2B6022E0654F3D68002D13D064496E
:101720000E88341E402C00D94024281C211CFFF7B1
:1017300043FD361B5E4AB6B21680002E01D1402C06
:1017400000D12E193E605C4BA0221988D200914234
:1017500004D100225A709A785C4B1A700122554BC2
:1017600061E0D200A4186068013E0838F6B22B4050
:1017700036D000F041F95649B0004258554B002A86
:101780001BD055684550111C985D083161600328D5
:101790000BD802F07FFA02040608032104E00221BC
:1017A00002E0052100E0042199558823270700D590
:1017B000C8231288120413433CE0985D032808D81C
:1017C00002F068FA39390204002200E001229A5539
:1017D00031E02C40624262410324A41A9C552AE065
:1017E00062880280002A20D03B4D43804360B300D2
:1017F0005F593A49002F01D1585101E0CD58686036
:10180000C850374B7600F15A5218F25200F0D6F811
:10181000002804D00830606021070AD507E0314B6A
:1018200020601A7801321A7005E02C4201D0264B54
:1018300000E02D4B23602D4A082313707FE5012023
:1018400004421ED01B4902230B70294B264C1A70F0
:10185000284B294D1C609C60284C1A61DC609A6101
:101860005D60274B0D241C70264CFF232370174C02
:1018700033702270244A1370244B9F221A70087010
:1018800013E063B2002B04DA1D4B0D221A70802383
:10189000337002231C4204D01A4A1178C9B2117065
:1018A000337010231C4200D03370F7BD3C0500207C
:1018B00024060020942007401C0600202120000060
:1018C000D8080020B1050020C8004000982007403B
:1018D000F4050020540500209C0500204005002050
:1018E0008C08002026060020880040008020074049
:1018F000B005002000F8FF1F5C050020B4050020A3
:10190000C0200740882007408C20074084200740E3
:1019100010B501F0D9FE00221A4B0021D1509818C1
:1019200008324160A82AF7D1174A80201468C00203
:1019300020431060180A154AC0B21070180C144ADF
:10194000C0B21070134A1B0E1370134AFF2313709A
:10195000124A13481370134A13700122027012487E
:10196000017012490A70124A116899430B1C7021C8
:101970000B4313600F4B802252041A600E4B10224F
:101980001A7010BD00F8FF1F348004409C200740EF
:10199000B0200740B420074080200740882007403F
:1019A0009420074010200740002107408420074072
:1019B00018E400E000E100E00821074038B572B605
:1019C0000B4C2568281C02F003FA1D2802D962B6C8
:1019D00000200CE080231B06C3409D43256062B6B7
:1019E00048235843034B181800230360436038BD55
:1019F000F802002000FAFF1F10B5041C0E48482111
:101A0000201A02F05BF91D2815D80C4B1B78002B0F
:101A100007D00B4B1B78002B03D0201CFFF716FCC4
:101A200009E072B68022074B1206C240101C1A68E9
:101A30001043186062B610BD00FAFF1F2606002092
:101A40002F060020F802002038B50B4C051C217829
:101A50003C2908D1094B1B68002B04D00848002200
:101A600098470023237023783B2B03D85A1C2270FD
:101A7000034AD55438BDC046970800205C060020B4
:101A80009B080020F8B51F4D1F4C01232B702368C5
:101A9000061C002B1DD11D4F1D4B1B78002B2FD07A
:101AA0000420FFF7C1FB052804D9013F194B002F83
:101AB00006D108E0FFF782FF20600028F5D008E09B
:101AC0001A78002A02D001221A7019E000F004FDF1
:101AD000E2E7104B002221681A704A88531C9200DA
:101AE0008A1896600F2B01D84B8007E040230B80AB
:101AF0000420FFF7E5FBFFF761FF206000232B7058
:101B0000F8BDC0464C06002054060020E14200000B
:101B10002F0600205806002038B5041C0D1C032D8C
:101B20000ED92078637800021B041843042318435D
:101B3000A378033D1B061843FFF7A4FF0334EEE729
:101B4000032D09D12078637800021B041843072372
:101B50001843A3781B060DE0022D06D12078637888
:101B600000021B041843062304E0012D05D1207850
:101B7000052300021843FFF785FF38BD10B50A4B57
:101B80001B78002B0ED1094C216800290AD04B8804
:101B9000002B07D09B000B800420FFF791FBFFF781
:101BA0000DFF206010BDC0464C06002054060020EA
:101BB000F8B5834C071C2368251C002B12D1814BE0
:101BC0001B78002B00D1E2E00520FFF713FB20601B
:101BD000002800D1DBE00688002E03D1FFF70CFFC0
:101BE0002660D4E0286843889A0892008218946896
:101BF00002880433934201D2438005E0FFF7FCFEE4
:101C00000520FFF7F7FA28600F23251C1D40200A46
:101C1000061C2A1C1E40083A0136062A00D980E01C
:101C2000002F02D0B74200D0B1E0220B1340082DA4
:101C30000AD1082B00D0AAE0634B00221A70634B34
:101C40001B68934232D163E0092D1AD1092B00D0D1
:101C50009DE0220E5C4B210C002A09D00120187057
:101C60005B4B1B68002B53D0F0B2C9B2D2B206E076
:101C70001A70564B1B68002B4AD0F0B2C9B2984775
:101C800046E00A2D07D10A2B00D080E04E4B0222FD
:101C90001A70504B07E00B2D0DD10B2B77D14A4B0F
:101CA00003221A704C4B1B68002B31D0210CF0B270
:101CB000C9B2220EE3E70C2D06D10C2B67D1424BA3
:101CC00004221A70454B07E00D2D0DD10D2B5ED16E
:101CD0003D4B05221A70424B1B68002B18D0210C7B
:101CE000F0B2C9B2984713E00E2D50D10E2B4ED151
:101CF000354B06221A703B4B1B68002B08D0FE2187
:101D0000620C890111406202520EF0B211439847F1
:101D1000354B220C1E70354B240E1A70344B1C7040
:101D20004CE0042D08D1C0B2FFF78EFE200CC0B2EB
:101D3000FFF78AFE200E28E06B1F022B1ED8C0B2D0
:101D4000FFF782FE052D08D0200CC0B2FFF77CFE05
:101D5000072D02D1200EFFF777FE264B234A197874
:101D6000117000221A70184B07221A70224B1B6840
:101D7000002B23D02148012298471FE00F2D12D1BC
:101D80001C4B1B78002B04D0C0B2FFF75DFE002077
:101D900015E00D4B08221A70194B1B68002BB7D0A9
:101DA000C0B29847B4E7022DF1D1074B09221A704F
:101DB000144B1B68002B01D0200C98470120F8BD64
:101DC000600600202F06002096080020380600201C
:101DD0006806002044060020640600203C0600201F
:101DE00048060020400600209A080020980800209D
:101DF00099080020970800205C0600209B0800201E
:101E0000500600203406002038B5114C2368002B02
:101E10000CD020684288531C8218157A028893429D
:101E200012D3FFF7E9FD002323600EE0094B1B7876
:101E3000002B02D10120404208E00220FFF7DAF92E
:101E400020600028E5D1F5E74380281C38BDC04656
:101E5000780600202F06002010B50D4C2368002BBB
:101E600003D02368002B0ED103E00A4B1B78002B14
:101E700002D10120404209E00220FFF7BBF92060B7
:101E80000028EED1F5E75A889B18187A10BDC04695
:101E9000780600202F060020054B5888054B1B684C
:101EA000002B03D01A885B88D31AC0187047C0462D
:101EB0008C0800207806002010B50A4B1B78002BF8
:101EC0000FD0094C2068002803D0FFF795FD0023B0
:101ED00023600220FFF78EF9002802D0FFF78CFD67
:101EE000F7E710BD2F06002078060020F7B5304D2B
:101EF0000123071C0C1C2B70002C56D02D4E306873
:101F0000002827D12C4A01922C4B1B78DBB2002BE6
:101F100003D12B700120404249E00320FFF784F9F0
:101F2000072808D801232B70FFF748FD214B1860C4
:101F300000280FD128700198214B0138019000280A
:101F400002D01A78002A02D001221A70E2E700F0CB
:101F5000C3FAD9E71A4B002231681A704B88402027
:101F6000C01A0094844200D90090181C009A0830CE
:101F70009B1808184B800190A41A002300988342F4
:101F800004D0F85C019AD0540133F7E7FF184B886E
:101F90003F2B06D940230B800320FFF791F9002344
:101FA0003360084B05221A70A6E72C70201CFEBD7A
:101FB0006D06002070060020097500002F06002025
:101FC000740600206C06002007B56B46D8710733F5
:101FD000181C0121FFF78AFF0EBDFFFFF8B5124B59
:101FE0001B78002B1ED0114F114B3C6801261E7030
:101FF000104D002C09D000262E706388032023800A
:10200000211CFFF75DF93E6009E0FFF7D7FC011ED8
:1020100004D003202C70FFF753F900E02E70044A1F
:1020200000231370F8BDC0462F0600207006002064
:102030006D0600206C06002038B50E4B1D78EDB201
:10204000002D15D10C4C2168002906D04B880320A7
:102050000B80FFF735F925600AE0FFF7AFFC011EA2
:1020600003D00320FFF72CF902E0044B01221A7081
:1020700038BDC0466D060020700600206C060020AA
:1020800010B5041C01F0FCFD201C10BD214B70B5E7
:1020900018681E1C2049214A002809D012780968B6
:1020A0000A71421E511D01D1032252421A6030E0D2
:1020B0000B6812781A4D1A702B68002B23D0194B1D
:1020C00000211C68201C01F065FE002816D1201C90
:1020D000154901F069FE002810D11449201C02F0B6
:1020E00091F8FC21890502F0B7F901F08FFE021E7C
:1020F000272A03D90E480F4901F0AAFD2B68336047
:1021000000232B6005E00A4801F0BAFD0A4BFF22CC
:102110001A7070BDA0060020940600209C060020C6
:1021200098060020A4060020ABAA2A4D0000C0415A
:10213000800600208D200000FC020020F8B5051C60
:102140000C1C1A2874D8002A08D0101C4843FA2105
:10215000890001F0B3FD4600013601E00326764216
:10216000201C02F00FFB011C324801F067FE0C231B
:102170006B43314A041CD3185F6872B62F4B197831
:102180008D4215D12E4D296801F0F4FD2D4B00280C
:1021900006D0186801220240013A96191E6046E0F6
:1021A000294A1968166001220A402C601A603EE034
:1021B000264B1A2903D826491868097801701F4947
:1021C0000D700C214D4351595519081C08301860E9
:1021D0001F4A287A1070087272B61B681278197B31
:1021E0000A431A7362B6A2235B003B60154B201CA6
:1021F0001E60134B00211C6001F0CCFD002816D19D
:10220000201C144901F0D0FD002810D11249201CD7
:1022100001F0F8FFFC21890502F01EF901F0F6FD3E
:10222000021E272A03D90D480D4901F011FD62B69F
:10223000F8BDC0460024F44880510000FC02002094
:10224000A4060020A0060020980600209406002086
:102250009C060020ABAA2A4D0000C0418006002049
:102260008D20000010B51A280FD872B6074C2378BD
:10227000834209D1064801F003FD064B064A1B685C
:1022800012781A70FF23237062B610BDFC02002082
:1022900080060020940600209C06002008B5054812
:1022A0000023037004498023044A437302F0BAFAFE
:1022B00008BDC0468006002081200000700200207A
:1022C00010B5041C006802F0EBFA201C10BD38B5F4
:1022D000041C0D1C0068013102F0B2FB002801D083
:1022E00021C4012038BD436810B5041C8B4208D2BC
:1022F000FFF7EDFF002805D0A368002B01D122686D
:102300001370012010BDF8B5041C0F1C151E05D15B
:102310000368002B00D01A7000230DE0111CFFF79A
:10232000E2FF061C2068002E08D1002802D002F02F
:10233000B7FA266000236360A36003E0A560391C40
:1023400002F0BEFB201CF8BD38B50023041C0D1C98
:102350000360436083600373994207D0081C02F056
:10236000B7FB291C021C201CFFF7CDFF201C38BD29
:1023700038B5051C00680C1C00280CD06A688B68F6
:102380009A4206D3096802F09BFBA2680023AA6068
:102390000AE002F085FA236862682B60A3686A602D
:1023A000AB60002323606360A36038BD10B5041EDA
:1023B0008C4201D0FFF7DCFF201C10BD07B50022C6
:1023C00001AB19705A70191C0122FFF79CFF0EBD5A
:1023D00010B50023041C0360436083600373FFF7A0
:1023E000EDFF201C10BDF7B50368171C0022041C6C
:1023F0000D1C86680092994206D39A19914203D225
:10240000CB1A019301230093002F1AD0BE19201C70
:10241000311CFFF768FF002813D0009BA0682168DB
:10242000002B09D0019A081889183A1C02F042FAC8
:1024300022680023935503E00818291C02F040FB92
:10244000A660201CFEBD08B50B1C9A680968FFF742
:10245000CAFF08BD13B5002201AB041C19705A70E5
:10246000191C0122FFF7BFFF201C16BD08B5FEF79F
:1024700003F9FEF7FDFA00F02FF8FAE708B5FFF7C9
:102480000BFD08BD08B5FFF7BFFC08BD08B5FFF799
:10249000E3FC08BD08B5FFF7A1FD08BD08B5FFF7CF
:1024A0000BFD08BD08B5081CFFF78EFD08BD08B57B
:1024B000081C111CFFF71AFD08BD7047044B0022D1
:1024C0001A711A73FA21034A890099601A607047D9
:1024D000A8060020D052000010B5104C2378002B25
:1024E0001BD101232370FFF7D7FC002801D0FFF791
:1024F000E4FF00F0E5FA002801D001F0AFF900F0A8
:102500002FFD002801D001F049FA00F0F5FF002866
:1025100001D001F0E3FA0023237010BDB8060020BB
:10252000024B1A6801321A607047C0463805002015
:1025300010B50B4C23685A0301D5FEF7FFFE236844
:102540005A0501D500F02EFB23681A0501D500F0CD
:1025500079FD2368DA04ECD501F040F8E9E7C046DC
:102560003480044008B5FFF7E3FFFFFF014B002272
:102570001A607047008104407047FFFF024A1368E9
:1025800018181060181C704700030020EFF3138028
:10259000002821D1EFF31082002A1FD1EFF3058329
:1025A000002B0FD0101C0F2B0ED91A1C103A9208BA
:1025B0000B49032092000340521883401068D84012
:1025C000C0B201E080204000EFF31182002A05D064
:1025D000824203D2101C01E0012040427047C046F5
:1025E00000E400E0F8B5061C0D1C171C0024301C8C
:1025F000391C01F0A7FB092901D8303100E037313F
:10260000C9B22955301C391C01F058FB061E01D0F7
:102610000134ECE72B1958702B1C5A1BA24206DA26
:102620001A78295D19702A550133013CF5E7281CF9
:10263000F8BDFFFF264B80221968D2000A431A60BA
:10264000244A00231370244A1370244A1370244A26
:102650001370244A1370244B1B78032B09D0152BBD
:1026600004D0002B08D1214A214B04E01F4A214B02
:1026700001E0214A214B1A60214B1B78042B0BD01F
:10268000052B05D0012B0BD1D12292001D4B06E06A
:10269000D12292001C4B02E091221C4B92001A6046
:1026A0001B4BC204D20E1A70C0B2002258709A702E
:1026B0002C22DA70174BFF22196891430A1C402123
:1026C0000A431A60144B802252011A607047C046B8
:1026D0003480044045070020C10600204C0700203C
:1026E00046070020C0060020020700201303000058
:1026F00040A0044018C004401302000004900440AD
:102700000403002044A004401CC00440089004407E
:1027100000A006400CE400E000E100E010B5174B1B
:10272000132299789143032202400A43410701D5BD
:1027300010210A439A700F2210490240042A03D143
:102740008A79402422438A715A7910218A430842A7
:1027500000D00A435A71997910229143840600D51A
:102760001143064A9971C10506D553781178202086
:10277000DBB201431170537010BDC04600A006408B
:1027800008B5124B1B685A051ED5114B1B78DBB2DE
:10279000002B02D0FFF7A0FEF7E70E4A8021490187
:1027A00011600D4A0D49D3700422FF320A600C49B2
:1027B0000A600C4A13700C4A13700C4B1B68002BF8
:1027C00002D00B4A12781A7108BDC046348004400A
:1027D000C006002080E100E000A0064040A00440C8
:1027E00044A0044045070020C1060020BC0600208C
:1027F0000307002038B5041C0B4B1D78EDB2002DEB
:10280000FAD1201C0121FEF7EFFB291C201CFEF74A
:10281000B9FB0C225443054B054AE1581C191160C1
:10282000044B227A1A7038BDC00600208051000087
:10283000480700204407002030B5002901D080233C
:102840001843224A1378141C98423ED0204A12683A
:10285000550539D57F221340042B0FD004D8012B06
:102860000FD100221B4B0BE0052B04D0182B08D1F5
:102870000022194B04E00022184B01E0184B002203
:102880001A604423002900D060237F220240042ADA
:1028900015D006D8012A17D1C022920013430D4A41
:1028A00011E0052A06D0182A0ED18022D200134347
:1028B000094A08E0C02292001343084A03E080223C
:1028C00092001343064A1360207030BD04030020B9
:1028D0003480044044A0044050D004401CC0044054
:1028E0000890044010B51A4A137898422ED019491E
:1028F00009684C0529D5032B0FD004D8002B0FD124
:1029000015490B600CE0152B04D0192B08D10021C0
:10291000124B04E00021124B01E0124B0021196020
:1029200003280FD004D800280FD10F490A4B0BE021
:10293000152804D0192808D10C49084B04E00A498D
:10294000074B01E00A49074B1960107010BDC046E3
:10295000020700203480044040A0044054D00440CA
:1029600018C0044004900440130300001304000046
:102970001302000038B50E4B1A680023510514D518
:102980000C4C1A2810D80C2343430B4A0B4D995872
:10299000D3181B7A216001212B70FEF725FB2368D9
:1029A0002A781A72012300E02360181C38BDC04643
:1029B00034800440BC060020805100000307002042
:1029C00000207047F8B5214B071C1B685A053BD502
:1029D0001F4B1B68002B02D01E4A12781A711E4E24
:1029E000002334783F220134A2425B415B421C4009
:1029F0001A4D2B78A3421CD1FFF7C8FD402813DCE9
:102A0000174A13795BB2002BF2DA2B7800210133DD
:102A10003F209842494149420B401249C95CDBB210
:102A2000C9B2D1712B70E3E7FF28E1DDFFF754FD58
:102A3000DEE70C4BFFB21F550B4B01221A70084BFF
:102A4000E4B2AC223470DA70F8BDC0463480044081
:102A500048070020440700204C07002046070020BC
:102A600000A00640C2060020C006002038B5041CA5
:102A70004518AC4204D02078FFF7A4FF0134F8E7F2
:102A800038BDFFFF08B5044B1B78002B02D0FFF7C1
:102A900023FDF8E708BDC046C0060020064B074AE4
:102AA0001B781078DBB2C0B2834201D33F3000E024
:102AB0000138C01A7047C0464C0700204607002066
:102AC000054B1878054BC0B21B78DBB2984200D298
:102AD0004030C01A7047C04645070020C10600209C
:102AE00010B5124B12491A780B78D2B2DBB29A4267
:102AF00019D001333F2400209C4240414042034012
:102B00000C48DCB2C05C0C700B49C0B209680029EB
:102B10000BD09A4200D24032D31A1A2B05DC074B55
:102B20001B780B7201E00120404210BD45070020D8
:102B3000C106002004070020BC0600200307002077
:102B40000A4B1A780A4B1B78DBB29A420AD001333F
:102B500000223F219942524152421340054AD05C23
:102B6000C0B201E0012040427047C0464507002046
:102B7000C106002004070020064B1A78064BD2B28B
:102B80001A70064B1B68002B02D0054A12781A7285
:102B90007047C046C106002045070020BC06002043
:102BA0000307002030B5254A1379990612D5244928
:102BB000D4790B78002001333F259D4240414042AB
:102BC00003402048E4B20078834203D01E48C45436
:102BD000DBB20B70D178194CC9B24BB2002B1ADAA8
:102BE00023795BB2002B16DA184B19481D7803784D
:102BF000DBB29D4202D16C23E3700CE00133002470
:102C00003F259D42644164422340124CE45CDBB2A8
:102C1000E4B2D4710370402319420ED011791942E5
:102C20000BD00D4B002119700C4B1B688B4202D04E
:102C30000B49097819722C23D37030BD00A00640CF
:102C400045070020C1060020040700204C07002093
:102C500046070020C2060020C006002048070020CA
:102C600044070020164B8022196812010A431A609B
:102C7000144A00231370144A14491370144A137031
:102C8000144A1370144A1370144A1160144AD12163
:102C900089001160134AC104C90EC0B2117050708E
:102CA00093702C23D370104B104A19680A4080216E
:102CB000C9010A431A600E4B802292011A607047C4
:102CC00034800440C0070020550700201303000093
:102CD000C8070020C1070020540700200CB00440A2
:102CE00010B0044000B006400CE400E0FF00FFFF1D
:102CF00000E100E010B5174B1322997891430322AD
:102D000002400A43410701D510210A439A700F225D
:102D100010490240042A03D18A79402422438A714F
:102D20005A7910218A43084200D00A435A7199798E
:102D300010229143840600D51143064A9971C105BA
:102D400006D5537811782020DBB2014311705370FF
:102D500010BDC04600B0064008B5124B1B681A05EE
:102D60001ED5114B1B78DBB2002B02D0FFF7B4FB52
:102D7000F7E70E4A8021890111600D4A0D49D37091
:102D80000422FF320A600C490A600C4A13700C4A94
:102D900013700C4B1B68002B02D00B4A12781A716F
:102DA00008BDC046348004405407002080E100E0A4
:102DB00000B006400CB0044010B00440C007002032
:102DC00055070020500700207E07002038B5041C5E
:102DD0000B4B1D78EDB2002DFAD1201C0121FEF71E
:102DE00003F9291C201CFEF7CDF80C225443054B97
:102DF000054AE1581C191160044B227A1A7038BD3B
:102E00005407002080510000C4070020BF070020A5
:102E10007047704738B50E4B1A680023110514D55A
:102E20000C4C1A2810D80C2343430B4A0B4D9958CD
:102E3000D3181B7A216001212B70FEF7D5F8236887
:102E40002A781A72012300E02360181C38BDC0469E
:102E50003480044050070020805100007E0700208D
:102E600000207047F8B5214B071C1B681A053BD59D
:102E70001F4B1B68002B02D01E4A12781A711E4E7F
:102E80000023347827220134A2425B415B421C407C
:102E90001A4D2B78A3421CD1FFF778FB402813DC96
:102EA000174A13795BB2002BF2DA2B780021013339
:102EB00027209842494149420B401249C95CDBB284
:102EC000C9B2D1712B70E3E7FF28E1DDFFF704FB06
:102ED000DEE70C4BFFB21F550B4B01221A70084B5B
:102EE000E4B2AC223470DA70F8BDC04634800440DD
:102EF000C4070020BF070020C8070020C10700202A
:102F000000B00640560700205407002038B5041CC6
:102F10004518AC4204D02078FFF7A4FF0134F8E74D
:102F200038BDFFFF08B5044B1B78002B02D0FFF71C
:102F3000D3FAF8E708BDC04654070020064B074AFD
:102F40001B781078DBB2C0B2834201D3273000E097
:102F50000138C01A7047C046C8070020C1070020CA
:102F6000054B1878054BC0B21B78DBB2984200D2F3
:102F70004030C01A7047C046C007002055070020E7
:102F800010B5124B12491A780B78D2B2DBB29A42C2
:102F900019D001333F2400209C424041404203406D
:102FA0000C48DCB2C05C0C700B49C0B20968002947
:102FB0000BD09A4200D24032D31A1A2B05DC074BB1
:102FC0001B780B7201E00120404210BDC0070020B9
:102FD000550700207F070020500700207E070020B3
:102FE0000A4B1A780A4B1B78DBB29A420AD001339B
:102FF00000223F219942524152421340054AD05C7F
:10300000C0B201E0012040427047C046C007002026
:10301000550700207F070020064B1A78064BD2B2D6
:103020001A70064B1B68002B02D0054A12781A72E0
:103030007047C04655070020C007002050070020F9
:103040007E07002030B5254A1379990612D5244908
:10305000D4790B78002001333F259D424041404206
:1030600003402048E4B20078834203D01E48C45491
:10307000DBB20B70D178194CC9B24BB2002B1ADA03
:1030800023795BB2002B16DA184B19481D780378A8
:10309000DBB29D4202D16C23E3700CE001330024CB
:1030A00027259D42644164422340124CE45CDBB21C
:1030B000E4B2D4710370402319420ED01179194241
:1030C0000BD00D4B002119700C4B1B688B4202D0AA
:1030D0000B49097819722C23D37030BD00B006401B
:1030E000C0070020550700207F070020C8070020E8
:1030F000C10700205607002054070020C407002005
:10310000BF070020204B8022196852010A431A6031
:103110001E4A002313701E4A13701E4A13701E4A63
:1031200013701E4A13701E4B1B78062B04D0072BFE
:1031300005D11C4A1C4B01E01A4A1C4B1A601C4B5F
:103140001B78082B05D0142B07D1D1229200194BE4
:1031500002E0D122184B92001A60184BC204D20E22
:103160001A70C0B2002258709A702C22DA70144B78
:10317000144A19680A408021C9030A431A60124B95
:103180008022D2011A607047348004403C0800203D
:10319000D1070020440800203D080020D00700206F
:1031A000050300201303000008C0044010C00440C1
:1031B0000603002014C004400CC0044000C00640B8
:1031C0000CE400E0FFFF00FF00E100E010B5174B4A
:1031D000132299789143032202400A43410701D503
:1031E00010210A439A700F2210490240042A03D189
:1031F0008A79402422438A715A7910218A430842ED
:1032000000D00A435A71997910229143840600D55F
:103210001143064A9971C10506D5537811782020CB
:10322000DBB201431170537010BDC04600C00640B0
:1032300008B5124B1B68DA041ED5114B1B78DBB2A4
:10324000002B02D0FFF748F9F7E70E4A8021C901A9
:1032500011600D4A0D49D3700422FF320A600C49F7
:103260000A600C4A13700C4A13700C4B1B68002B3D
:1032700002D00B4A12781A7108BDC046348004404F
:10328000D007002080E100E000C0064008C00440F4
:103290000CC004403C080020D1070020CC070020CF
:1032A000FA07002038B5041C0B4B1D78EDB2002D39
:1032B000FAD1201C0121FDF797FE291C201CFDF7E7
:1032C00061FE0C225443054B054AE1581C1911605C
:1032D000044B227A1A7038BDD007002080510000BC
:1032E000400800203B08002030B5002901D0802391
:1032F0001843154A1378141C984224D0134A1268B4
:10330000D5041FD57F221340082B04D0142B05D1E0
:1033100000220F4B01E00F4B00221A6044230029CA
:1033200000D060237F220240082A06D0142A09D147
:10333000C02292001343064A03E0C02292001343C6
:10334000044A1360207030BD06030020348004401E
:1033500014C004400CC0044010B50F4A13789842C2
:1033600018D00E490968CC0413D5062B04D0072BBE
:1033700005D100210A4B01E00A4B00211960062803
:1033800004D0072805D10849054B01E00649054B43
:103390001960107010BDC046050300203480044041
:1033A00008C0044010C004401303000038B50E4BA1
:1033B0001A680023D10414D50C4C1A2810D80C23F9
:1033C00043430B4A0B4D9958D3181B7A21600121B6
:1033D0002B70FDF709FE23682A781A72012300E09A
:1033E0002360181C38BDC04634800440CC07002040
:1033F00080510000FA07002000207047F8B5214BEB
:10340000071C1B68DA043BD51F4B1B68002B02D03E
:103410001E4A12781A711E4E002334782722013476
:10342000A2425B415B421C401A4D2B78A3421CD147
:10343000FFF7ACF8402813DC174A13795BB2002B76
:10344000F2DA2B7800210133272098424941494282
:103450000B401249C95CDBB2C9B2D1712B70E3E7F2
:10346000FF28E1DDFFF738F8DEE70C4BFFB21F5510
:103470000B4B01221A70084BE4B2AC223470DA70A4
:10348000F8BDC04634800440400800203B080020BE
:10349000440800203D08002000C00640D20700205C
:1034A000D007002038B5041C4518AC4204D0207861
:1034B000FFF7A4FF0134F8E738BDFFFF08B5044B60
:1034C0001B78002B02D0FFF707F8F8E708BDC046CD
:1034D000D0070020064B074A1B781078DBB2C0B239
:1034E000834201D3273000E00138C01A7047C0463C
:1034F000440800203D080020054B1878054BC0B259
:103500001B78DBB2984200D24030C01A7047C046E8
:103510003C080020D107002010B5124B12491A7840
:103520000B78D2B2DBB29A4219D001333F2400208B
:103530009C424041404203400C48DCB2C05C0C70ED
:103540000B49C0B2096800290BD09A4200D2403220
:10355000D31A1A2B05DC074B1B780B7201E00120F4
:10356000404210BD3C080020D1070020FB0700208E
:10357000CC070020FA0700200A4B1A780A4B1B7868
:10358000DBB29A420AD0013300223F2199425241D4
:1035900052421340054AD05CC0B201E001204042D3
:1035A0007047C0463C080020D1070020FB070020E0
:1035B000064B1A78064BD2B21A70064B1B68002BCA
:1035C00002D0054A12781A727047C046D10700200F
:1035D0003C080020CC070020FA07002030B52E4A16
:1035E0001379990624D52D49D4790B78002001331D
:1035F0003F259D424041404203402948E4B20078C3
:10360000834203D02748C454D8B2087026490868BA
:1036100000280DD025490978C9B28B4201D35B1A25
:1036200001E05B1A4033272B02DD214B1B7803712D
:10363000D178194CC9B24BB2002B1ADA23795BB29C
:10364000002B16DA1B4B19481D780378DBB29D421C
:1036500002D16C23E3700CE00133002427259D4246
:10366000644164422340144CE45CDBB2E4B2D471A4
:103670000370402319420ED0117919420BD00F4B21
:10368000002119700E4B1B688B4202D00D4909783E
:1036900019722C23D37030BD00C006403C080020B6
:1036A000D1070020FB070020CC0700203D080020A8
:1036B000FA07002044080020D2070020D00700208D
:1036C000400800203B0800201FB572B6154B702241
:1036D0001A70154A41211170144A0F21117080226D
:1036E0001A701A7852B2002AFBDA114B186862B6C7
:1036F000104B984201D80A23584301AC211C0A22DE
:10370000FEF770FF0023E15C0B4A002905D058004A
:103710001018013341800A2BF5D101335B0013707F
:103720001FBDC046000002400700024006000240E4
:10373000080002407F969800E403002008B5036863
:10374000C9B21B68984708BD08B50368C9B21B68B1
:10375000984708BD08B50368C9B21B68984708BDFB
:1037600008B50368C9B21B68984708BD08B5044B83
:103770004808C01800F0A2FAFEF75CFF08BDC0467A
:10378000C0C62D0010B5064B4808C018141C00F028
:1037900095FAFEF74FFF201CFEF7C0FF10BDC04694
:1037A000C0C62D0008B5FEF7EBFF08BD08B5081C24
:1037B000FFF720F808BD08B5081CFFF793F808BD0F
:1037C00008B5081C111CFFF737F808BD08B5081C20
:1037D000FFF7D0F8431E9841C0B208BD08B5081CD9
:1037E000FFF7EEF8431E9841C0B208BD08B5FFF7D9
:1037F00067F908BD08B5FFF7A3F908BD08B5FFF7DD
:103800006FF908BD08B5FFF73DF908BD08B5FFF72A
:10381000B3F908BD08B5FFF741F908BD08B5081CA4
:10382000FFF7D0F8012008BD08B5081CFFF7CAF85B
:10383000012008BD10B5081C141C111CFFF716F957
:10384000201C10BD38B5081C0D1C01F041F9041CEA
:10385000211C281CFFF70AF9201C38BD7047FFFF08
:10386000044B00221A711A73FA21034A89009960E5
:103870001A607047480800205853000008B50368D4
:10388000C9B21B68984708BD08B50368C9B21B6870
:10389000984708BD08B50368C9B21B68984708BDBA
:1038A00008B50368C9B21B68984708BD08B5044B42
:1038B0004808C01800F002FAFFF7D4F908BDC04666
:1038C00060E3160010B5064B4808C018141C00F041
:1038D000F5F9FFF7C7F9201CFFF70CFA10BDC04639
:1038E00060E3160008B5FFF737FA08BD08B5081CF5
:1038F000FFF76CFA08BD08B5081CFFF78AFA08BD87
:1039000008B5081C111CFFF783FA08BD08B5081C90
:10391000FFF780FA431E9841C0B208BD08B5081CE5
:10392000FFF79EFA431E9841C0B208BD08B5FFF7E5
:1039300017FB08BD08B5FFF753FB08BD08B5FFF737
:103940001FFB08BD08B5FFF7EDFA08BD08B5FFF786
:1039500063FB08BD08B5FFF7F1FA08BD08B5081C00
:10396000FFF780FA012008BD08B5081CFFF77AFAB6
:10397000012008BD10B5081C141C111CFFF7C6FA65
:10398000201C10BD38B5081C0D1C01F0A1F8041C4A
:10399000211C281CFFF7BAFA201C38BD7047FFFF16
:1039A000044B00221A711A73FA21034A89009960A4
:1039B0001A60704758080020B853000008B5036823
:1039C000C9B21B68984708BD08B50368C9B21B682F
:1039D000984708BD08B50368C9B21B68984708BD79
:1039E00008B50368C9B21B68984708BD08B5044B01
:1039F0004808C01800F062F9FFF784FB08BDC04614
:103A000060E3160010B5064B4808C018141C00F0FF
:103A100055F9FFF777FB201CFFF7D8FB10BDC04618
:103A200060E3160008B5FFF703FC08BD08B5081CE5
:103A3000FFF738FC08BD08B5081CFFF78DFC08BD72
:103A400008B5081C111CFFF74FFC08BD08B5081C81
:103A5000FFF7ACFC431E9841C0B208BD08B5081C76
:103A6000FFF7CAFC431E9841C0B208BD08B5FFF776
:103A700043FD08BD08B5FFF77FFD08BD08B5FFF79A
:103A80004BFD08BD08B5FFF719FD08BD08B5FFF7E8
:103A90008FFD08BD08B5FFF71DFD08BD08B5081C62
:103AA000FFF7ACFC012008BD08B5081CFFF7A6FC19
:103AB000012008BD10B5081C141C111CFFF7F2FCF6
:103AC000201C10BD38B5081C0D1C01F001F8041CA9
:103AD000211C281CFFF7E6FC201C38BD7047FFFFA7
:103AE000044B00221A711A73FA21034A8900996063
:103AF0001A607047680800201854000008B50B4B86
:103B00001A68002A04D001221A60094B1B689847E2
:103B1000084B1B78002B08D0074B1A68002A04D0EA
:103B200001221A60024B5B68984708BD0C71034084
:103B30007C0800207A0800201C710340064B80227C
:103B4000196812040A431A60044B00221A60044BDD
:103B500001221A707047C0463C8004400070034048
:103B60007A080020054B01221A60054B054A1968A6
:103B70000A401A60044B00221A707047007003401C
:103B80003C800440FFFF7FFF7A08002070B5447836
:103B90000E4D0F4E23015A199B190E4D0669A400B4
:103BA00042606651002483601C60116003221A6029
:103BB000094B417B094A1868090402400A431A600C
:103BC000074B8022D2031A6070BDC04600710340CB
:103BD000087103407C08002014E400E0FFFF00FFB0
:103BE00000E100E0F8B50C4B061C1B780F1C002B05
:103BF00001D1FFF7A3FF094D2C78002C04D06B787E
:103C00000020834207D10124301C7470391CFFF757
:103C1000BDFF01202855F8BD7A0800207808002053
:103C200008B5836800221A608021074BC903196018
:103C30004178064B5A541A78002A04D15B78002B3D
:103C400001D1FFF78FFF08BD80E100E07808002078
:103C500070B50378041C0E1C151C002B03D0FFF755
:103C6000DFFF002323702661201C291CFFF7BAFF09
:103C7000002802D00123237000E02070207870BD5E
:103C8000037810B5041C002B01D0FFF7C9FF0023F7
:103C9000237010BD02B4714649084900095C49000F
:103CA0008E4402BC7047C04603B4714649084000C8
:103CB0004900095A49008E4403BC7047002934D09A
:103CC0000123002210B488422CD301242407A142EE
:103CD00004D2814202D209011B01F8E7E400A142AB
:103CE00004D2814202D249005B00F8E7884201D346
:103CF000401A1A434C08A04202D3001B5C0822431E
:103D00008C08A04202D3001B9C082243CC08A0428E
:103D100002D3001BDC082243002803D01B0901D07A
:103D20000909E3E7101C10BC7047002801D00020EF
:103D3000C04307B4024802A14018029003BDC04628
:103D4000190000000029F0D003B5FFF7B9FF0EBC41
:103D50004243891A1847C0467047C0468446081C2B
:103D60006146FFE71FB500F001FA002801D40021E9
:103D7000C8421FBD10B500F087F94042013010BDA8
:103D800010B500F0F3F9002801DB002010BD012080
:103D900010BDC04610B500F0E9F9002801DD002093
:103DA00010BD012010BDC04610B500F097F90028E5
:103DB00001DC002010BD012010BDC04610B500F090
:103DC0008DF9002801DA002010BD012010BDC04689
:103DD0001C2101231B04984201D3000C10391B0A3B
:103DE000984201D3000A08391B09984201D30009FF
:103DF000043902A2105C40187047C0460403020256
:103E00000101010100000000000000009E2110B52A
:103E1000C905041CFFF7D2FF002803D1201C00F0C5
:103E200091FC10BD9E21C905201C00F015FB00F07F
:103E300089FC80231B06C018F3E7C046F0B55F4637
:103E400056464D464446F0B446024500C00F85B084
:103E50000F1C760A2D0E804641D0FF2D26D08024DF
:103E6000240400212643F6007F3D89468B46F90F46
:103E70007C027800640A000E00918A463CD0FF283C
:103E800034D080231B041C430023E4007F380193BB
:103E9000009F4346019A7B4049469C4611430F29A7
:103EA00000D971E0764F89007F58BF46002E3ED181
:103EB0000822022391469B46D9E75A46341CC24643
:103EC00001920199022937D0032900D1CFE00129BD
:103ED00000D0ABE053460B400022002632E0002E1B
:103EE00019D10421012289469346C0E7221C531EA2
:103EF0009A4102320192CBE701270197002CC7D0EB
:103F0000201CFFF765FF431F9C4076235B42002186
:103F1000181A0191BCE7301CFFF75AFF7625431FA2
:103F20009E406D4200232D1A99469B469FE70C2325
:103F3000032199468B469AE7D446012367463B40C6
:103F4000FF2200267602D205700ADB0710431843D1
:103F500005B03CBC90469946A246AB46F0BD8026D3
:103F60000023F603FF22EDE700220026EAE7802087
:103F7000C00306423BD0044239D1061C26437602D8
:103F8000760A009BFF22DDE7281A03907601640180
:103F9000A64239D3361B1A2201230120311C5B00B3
:103FA0007600002901DBB44201D8361B0343013AF5
:103FB000002AF3DC741EA641341C1C43039A7F3292
:103FC000002A27DD630704D00F232340042B00D0F1
:103FD0000434270103D52B4B039A1C408032FE2A60
:103FE0000BDD012361460B40FF220026AAE70643B2
:103FF0007602760A4346FF22A4E7A401012367461E
:10400000660AD2B23B409DE7039F1B22013F039704
:104010000023C2E77E23039F5B42DB1B1B2B07DDD4
:10402000012361460B40002200268BE7D446C5E7FA
:10403000221CDA40039B9E339C40231C5C1EA34140
:1040400013435A0704D00F221A40042A00D0043325
:104050005F0105D5012361460B400122002671E76F
:104060009E01624601231340760A00226AE78026F9
:10407000F60326437602760A5346FF2262E7C046DD
:1040800070540000FFFFFFF74A02430270B55C0A5C
:10409000550A43004A001B0EC60F120EC90FFF2B14
:1040A00005D0FF2A08D0012093420BD070BD01201B
:1040B000002CFBD1FF2AF6D10120002DF6D10120E2
:1040C0009342F3D1AC42F1D18E4205D0002BEDD119
:1040D000201C441EA041E9E70020E7E74A02430212
:1040E000F0B55C0A550A43004A001B0EC60F120EBB
:1040F000C90FFF2B31D0FF2A34D0002B16D16042DC
:1041000060418446002A14D0002820D18E4217D165
:10411000934215DC04DBAC4212D80020AC4212D230
:10412000704270414042012318430CE0002AEDD157
:1041300094466F426F416046002805D1002FE5D0BC
:10414000704201231843F0BD0020002FFBD14842EC
:104150004841404201231843F5E7002CCBD0022010
:104160004042F0E7002DC8D0F9E7C0464A024302BA
:10417000F0B55C0A550A43004A001B0EC60F120E2A
:10418000C90FFF2B27D0FF2A29D0002B10D0002ADF
:1041900015D194466F426F416046002815D000202B
:1041A000002F04D148424841404201231843F0BD4A
:1041B000604260418446002AECD00028F2D18E4251
:1041C00011D0704201231843F1E7002FF7D070425D
:1041D00001231843EBE70220002CE8D1D3E70220AB
:1041E000002DE4D1D1E79342EBDC04DBAC42E8D80C
:1041F0000020AC42DBD270427041404201231843A0
:10420000D5E7C046F0B55F4656464D464446F0B445
:104210004402460083B00F1C640A360EC50F002E00
:1042200041D0FF2E22D080231B0400201C43E40039
:104230007F3E82468046391C4B007F02C90F7F0AB1
:104240001B0E8B463BD0FF2B34D080221204174329
:10425000FF007F3B00215A466A40019252460A43C2
:104260000F2A63D87A48920082589746002C3FD193
:104270000822022392469846DDE70195404602282F
:104280002AD1019A01251540FF2300246402DB0591
:10429000600AED071843284303B03CBC904699469A
:1042A000A246AB46F0BD002C27D104200122824655
:1042B0009046C0E7391C4A1E91410231CBE70121EB
:1042C000002FC8D0381CFFF783FD431F9F40762383
:1042D0005B421B1A0021BEE7032800D1AEE0012893
:1042E0004FD1019842461040C5B200230024CDE7CB
:1042F0000C2303209A4680469DE7201CFFF768FDAB
:104300007626431F9C4076420023361A9A469846EA
:1043100091E780240025E403FF23B7E75B463C1CBC
:1043200001938846AAE73C1C8846A7E7250C24048D
:104330003A0C240C3F04F6183F0C211C231C794333
:1043400053436F435543FB180A0C9B18B1469F42D9
:1043500002D980225202AD1809041A04090C52181D
:1043600094011B0C611E8C41920EED181443AD019B
:104370002C43230105D50122630801201440814408
:104380001C434B467F33002B2DDD600704D00F22EA
:104390002240042A00D00434220103D52D4B1C40B6
:1043A0004B468033FE2B17DD019B01251D40002469
:1043B000FF236BE78020C003044208D0074206D1E8
:1043C000041C3C436402640A5D46FF235EE7044329
:1043D0006402640AFF2359E70198A4010125640AD5
:1043E000DBB2054052E77E235B424A469B1A1B2BF9
:1043F00005DD019B01251D400024002346E7221C0A
:10440000DA404B469E339C40231C5C1EA341134361
:10441000580704D00F221A40042A00D004335A014E
:1044200005D5019B01251D40002401232EE701989D
:104430009C010125640A0540002327E78027FF032C
:10444000019B3C43640201251D40640AFF231DE7D4
:10445000B0540000FFFFFFF7F8B5C20F430244005D
:104460004D024800240E161C9B09000EC90FAD0911
:10447000FF2800D183E0012779408A425CD0221ACC
:10448000002A00DC8EE000281ED1002D00D07AE04A
:10449000580704D00F221A40042A00D00433802188
:1044A000C90401221940324000293AD00134FF2CBE
:1044B00000D183E09B015B0A5B02E4B2E405580A89
:1044C000D20720431043F8BDFF2CE1D08021C9045E
:1044D0000D431B2A00DD31E1291C2020D140821A26
:1044E00095406A1E95410D435B1B5801D0D59B0139
:1044F0009F09381CFFF76CFC421F974094425FDC19
:10450000141B1F231B1B3A1C9F40611C3B1CCA40F1
:104510005F1EBB4113430024BAE7131EB8D100232A
:104520000022DB08FF2C04D1002B47D08020C003E1
:1045300003435B025B0ABFE7211A002944DD002820
:1045400027D0FF2CA4D08020C00405431B2900DD08
:10455000F2E0281C2027C840791A8D40691E8D4141
:1045600005435B19590100D492E70134FF2C59D05F
:10457000734901221A400B405B08134388E7002D62
:1045800000D07AE777E7013A002AADD0FF2CA0D11E
:104590007EE7002D00D17BE701390029E1D0FF2C17
:1045A000D4D175E7002A1BD1621CD2B2012A4BDD9F
:1045B0005F1B7A0123D5EF1A0E1C9AE700237BE7D5
:1045C0005F4BA41A3B4063E7002946D1611CC8B287
:1045D000012829DDFF2924D0EB185B080C1C57E7C4
:1045E000002C13D0FF2818D08024E4045242234327
:1045F0001B2A4DDD0123EB1A041C0E1C75E7002F4E
:1046000000D076E70023002200248AE7002B3BD06D
:10461000D243002AEFD0FF28EAD12B1CFF240E1C26
:1046200036E7FF2400237CE7002C5CD1002B00D16F
:1046300080E0002D00D12BE75B19580100D427E75B
:104640003F4A0124134023E7002C15D1002B40D111
:10465000002D63D02B1C0E1C1AE7002C21D1002B3F
:1046600054D0C943002904D0FF284CD01B2958DD61
:1046700001235B19041C75E7002B19D1002D48D0CC
:104680002B1C0E1CFF2403E72B1C041C0E1CFFE636
:104690001C1C2026D440B21A93405A1E9341234337
:1046A000A9E7FF282FD08024E40449422343DDE713
:1046B000FF24002D00D1EBE68022DB08D203134259
:1046C00004D0ED08154201D12B1C0E1CDB00FF2489
:1046D000DEE6002D00D1DBE65A1B500100D41CE7BA
:1046E000EB1A0E1CD4E6002B0DD0FF24002D00D1B8
:1046F000CEE68022DB08D2031342E7D0ED08154254
:10470000E4D12B1CE2E72B1CFF24C1E62B1C041C6C
:10471000BEE6802300229B04FF2402E7231C002224
:10472000FFE61C1C2027CC40791A8B40591E8B4178
:1047300023439EE72B1CABE6012512E70125D3E6B8
:10474000FFFFFFFB4302590A4300C20F1B0E00206C
:104750007E2B0DDD9D2B0CDC802000040143952B6E
:104760000ADC9620C31AD9404842002A00D1081C0E
:104770007047034BD018FBE7963B9940F4E7C046DF
:10478000FFFFFF7F10B5041E33D0FFF721FB9E23F0
:104790001B1A962B09DC083884406402640ADBB2D9
:1047A0006402DB05600A184310BD992B0ADD05225F
:1047B000121A211CD1400A1C011C1B318C40611EA5
:1047C0008C411443052801DD421F9440144A2240C5
:1047D000610704D00F210C40042C00D00432510199
:1047E0000AD59F23181AFF2816D09401640AC3B271
:1047F000D6E700230024D3E7D208FF2B03D05402CE
:10480000640ADBB2CCE7002A06D08024E403144318
:104810006402640AFF23C3E7FF230024C0E7C04605
:10482000FFFFFFFB08B5031C081C191C00F002F871
:1048300008BDFFFF38B5051C05480C1C131C0028DB
:1048400004D00220291C221C00E000BF38BDC04655
:104850000000000070B50E4B0E4D0024ED1AAD1097
:104860001E1CAC4204D0A300F35898470134F8E76B
:1048700000F05AFE084B094D0024ED1AAD101E1C25
:10488000AC4204D0A300F35898470134F8E770BD58
:1048900034550000345500003455000050550000D8
:1048A00008B5034B011C186800F02EF808BDC0467F
:1048B0005C04002010B50023934203D0CC5CC454A8
:1048C0000133F9E710BD70B5814201D300230CE03C
:1048D0008C18A042FAD28518131C013B0BD351420D
:1048E0006618F65C6918CE54F7E7934203D0CC5CA7
:1048F000C4540133F9E770BD031C8218934202D0FF
:1049000019700133FAE7704730B5002940D00439F7
:104910000B68002B00DAC9181E4A1368141C002B00
:1049200002D14B60116033E099420FD208680A1837
:104930009A4205D113685268C01808604A6000E0C6
:104940004B60216024E08A4203D8131C5A68002A75
:10495000F9D11D685C198C420BD109686918581887
:104960001960904214D114685268091919605A608C
:104970000EE08C4202D90C23036009E008680C1891
:10498000944203D114685268001908604A60596063
:1049900030BDC0468808002070B50323CD1C9D4360
:1049A0000835061C0C2D01D20C2501E0002D3FDB43
:1049B0008D423DD3204B1C681A1C211C002913D0AA
:1049C0000868431B0DD40B2B02D90B60CC181EE0DA
:1049D0008C4202D1636813601AE0486860600C1C66
:1049E00016E00C1C4968E9E7144C2068002803D144
:1049F000301C00F031F82060301C291C00F02CF82D
:104A0000431C15D0C41C03239C4384420AD1256057
:104A1000201C0B300722231D9043C31A0BD05A428F
:104A2000E25008E0211A301C00F016F80130EED1F7
:104A30000C233360002070BD88080020840800200B
:104A400008B50A1C0349031C0868191C00F02DFB5B
:104A500008BDC0465C04002038B5074C0023051C87
:104A6000081C2360FDF78AFD431C03D12368002B3B
:104A700000D02B6038BDC046E40800200EB400B55D
:104A80009CB01DAB04CB822202A992008A810A4A03
:104A900002908A604A6101225242CA81074A086133
:104AA00010681D9A019300F07BF8029A002313709E
:104AB0001CB008BC03B01847FFFFFF7F5C04002058
:104AC000031C0A7801311A700133002AF9D17047AA
:104AD0000023C25C0133002AFBD1581E7047FFFF40
:104AE000F0B58D6885B0071C0C1C03920193AB4296
:104AF00045D390228B89D20013423DD062690326B0
:104B0000564309692068F20F401A96190290021C58
:104B10000198013212187610964200D2161C381CE9
:104B20005A050FD5311CFFF737FF051E13D0029A27
:104B30002169FFF7BFFEA289184B1340802213435F
:104B4000A38111E0321C00F0B0FA051E0CD1381C14
:104B50002169FFF7D9FE0C233B60A3894022134350
:104B60000120A381404217E0029B2561ED182560DA
:104B70006661019DF61AA6600198A84200D2019DC7
:104B80002A1C20680399FFF79EFEA2680020531B91
:104B9000A36023685D19256005B0F0BD7FFBFFFFB2
:104BA000F0B59FB0039005938B890E1C171C190656
:104BB0000FD53269002A0CD14021FFF7EDFE30609D
:104BC0003061002803D103990C230B60C9E0402316
:104BD000736106AD00236B6120236B763023AB76C7
:104BE0003C1C2378002B03D1E21B029211D003E07E
:104BF000252BF9D00134F4E70398311C3A1C029BB1
:104C0000FFF76EFF013000D1A6E06969029A8B18A8
:104C10006B612378002B00D19EE0012252426A6032
:104C20006A4600235B3201342B60EB60AB6013708B
:104C3000AB654E4F2178381C052200F02BFA002876
:104C400007D0C71B2B680120B840184328600134E7
:104C5000EFE72B68D90603D56A4620215B32117035
:104C60001A0703D56A462B215B32117022782A2A53
:104C700001D0099B0EE0059A111D12680591002ACA
:104C800001DB099204E05242EA60022213432B60E6
:104C9000013409E02278303A092A04D80A214B432A
:104CA00001349B18F6E7099323782E2B18D16378EB
:104CB0002A2B09D1059B02341A1D1B680592002B73
:104CC0000DDA01235B420AE0013400232278303AF6
:104CD000092A04D80A214B4301349B18F6E70793AD
:104CE000234F2178381C032200F0D4F9002806D085
:104CF000C71B2B684020B840184328600134217836
:104D00001C480622671C297600F0C4F9002812D03E
:104D1000194B002B06D1059B072207339343083319
:104D2000059314E005AB00930398291C321C134B28
:104D300000E000BF07E005AB00930398291C321C7C
:104D40000E4B00F091F804900499013104D06A6987
:104D5000049953186B6143E7B3895A0601D40B9841
:104D600001E0012040421FB0F0BDC046F2540000F7
:104D7000F8540000FC54000000000000E14A00006C
:104D8000F7B5151C01930A698B68061C0C1C93422D
:104D900000DA131C221C2B6043321278002A01D047
:104DA00001332B602068800602D52B6802332B600C
:104DB000216806270F401FD0231C43331B785A1E3F
:104DC0009341226892061FD5E11840313020C87007
:104DD000211C5A1C45310978A21840320233D17087
:104DE00012E0221C301C019919320123089FB84798
:104DF000013011D0009F01370097E0682968009FBB
:104E0000431A9F42EDDBD7E7221C301C0199433245
:104E1000089FB847013002D10120404223E02068BA
:104E200006212B68E26801400025042903D1D51A28
:104E3000EB43DB171D40A26823699A4201DDD31AB8
:104E4000ED1800270097009FAF420BDA221C301CA0
:104E500001991A320123089FB8470130DCD0009F26
:104E60000137EFE70020FEBDF0B50D1C8BB04335D8
:104E700006920590079304950B7E0C1C109A6E2BDE
:104E800000D1A7E011D8632B22D009D8002B00D184
:104E9000B0E0582B00D0C0E045310B707B4D4EE0A8
:104EA000642B1CD0692B1AD0B7E0732B00D1A5E07E
:104EB00009D86F2B29D0702B00D0AEE00E682023CC
:104EC00033430B6036E0752B1FD0782B32D0A4E033
:104ED00013680D1C191D423511601B689FE0216885
:104EE00013680E0603D5191D11601E6805E04806FB
:104EF000F9D5191D116000215E5E644B002E3BDA6E
:104F0000049D2D2276422A7036E0216813680E0631
:104F100003D5191D11601E6804E04806F9D5191D56
:104F20001E881160594B227E039308276F2A1ED0DA
:104F30000A271CE0231C78214533554D1970116850
:104F40002368081D039510601E0601D50E6802E057
:104F50005806FBD50E88D90702D5202213432360BB
:104F60001027002E03D1226820239A432260231C9D
:104F7000002243331A7001E003930A276368A36099
:104F8000002B03DB2568042295432560002E02D107
:104F9000049D002B0ED0049D301C391CFEF7D2FE60
:104FA0000398013D435C301C2B70391CFEF786FED4
:104FB000061EF1D1082F09D12168C90706D56268FC
:104FC00023699A4202DC013D30232B70049E731B3F
:104FD00023612AE0086813684969050604D5181D8D
:104FE00010601B68196005E04606F8D5181D1060B2
:104FF0001B68198000232361049D16E01368191DA6
:1050000011601D68281CFFF763FD636820619842EA
:1050100000D923612069606004E0251C42352B70B3
:1050200001232361049E00233370079E0598009698
:10503000211C09AA069BFFF7A3FE013002D1012023
:10504000404221E02A1C059806992369079DA8473C
:105050000130F4D02668B60705D4099BE068984271
:1050600012DA181C10E00025E0680999431A9D42E5
:10507000F3DA221C0598069919320123079EB047DE
:105080000130DCD00135EFE70BB0F0BD0355000077
:1050900014550000C9B28218904204D003788B42A4
:1050A00002D00130F8E700207047F8B5061C0C1C50
:1050B000151C002904D1111CFFF76EFC041C18E01C
:1050C000002A03D1FFF720FC2C1C12E000F013F89B
:1050D000A8420ED2301C291CFFF75EFC071E07D029
:1050E000211C2A1CFFF7E6FB301C211CFFF70CFCDF
:1050F0003C1C201CF8BD04390B68181F002B02DA79
:10510000C8581B18181F7047256C6400256C750063
:105110004720256320256C642025642025640065D4
:105120006E6400742000340020473A002050445F31
:1051300073637265656E3A002050445F6C617365FD
:10514000723A00556E6B6E6F776E20636F6D6D6196
:105150006E643A2000050E08090D0C06070F0B00BF
:105160004417FF050E08090D0C06070F0B00441726
:10517000FFFFFFFFFFFFFFFFFFFFFF1A1BFFFFFF08
:10518000420000F840A0044001000000420000F886
:1051900044A0044002000000C00000F800C0044029
:1051A00001000000000000F804900440020000002C
:1051B000000000F80890044004000000C00000F85F
:1051C0001CC0044080000000C00000F810C0044073
:1051D00010000000C00000F808C0044004000000F7
:1051E000C00000F80CC0044008000000800000F877
:1051F0000CB0044008000000800000F810B004402B
:1052000010000000800000F818B0044040000000CA
:10521000800000F81CB0044080000000800000F80E
:1052200014B0044020000000C00000F804C0044096
:1052300002000000800000F800B0044001000000FF
:10524000400000F800A0044001000000400000F809
:1052500004A0044002000000400000F80CA004403C
:1052600008000000400000F808A00440040000000E
:10527000C00000F814C0044020000000C00000F886
:1052800018C0044040000000800000F804B0044052
:1052900002000000800000F808B004400400000094
:1052A000020100F850D0044010000000020100F894
:1052B00054D0044020000000030100F878D00440DE
:1052C00040000000FFFFFFFF0000000000000000A2
:1052D000A5240000AF2400007D24000085240000E8
:1052E0008D240000952400009D2400000000000093
:1052F0001519151519FFFFFF000100000703002015
:10530000120000000002000032030020950000009F
:1053100000030000E0030020000000000103090476
:105320001A0300200000000002030904C803002043
:105330000000000003030904E40300200000000053
:10534000000000000000000000000000FFFFFFFF61
:1053500000000000000000001D380000353800008B
:10536000ED370000FD370000F5370000053800007C
:105370006D37000085370000A5370000AD3700000D
:10538000B7370000C1370000CD370000DD3700001F
:105390000D380000153800003D3700004937000087
:1053A00055370000613700004538000029380000FB
:1053B00000000000000000005D39000075390000A9
:1053C0002D3900003D390000353900004539000015
:1053D000AD380000C5380000E5380000ED380000A9
:1053E000F7380000013900000D3900001D390000B8
:1053F0004D390000553900007D3800008938000023
:1054000095380000A1380000853900006939000096
:1054100000000000000000009D3A0000B53A0000C6
:105420006D3A00007D3A0000753A0000853A0000B0
:10543000ED390000053A0000253A00002D3A000041
:10544000373A0000413A00004D3A00005D3A000052
:105450008D3A0000953A0000BD390000C9390000BE
:10546000D5390000E1390000C53A0000A93A000032
:10547000883F00003A3F0000683F0000C23E000045
:10548000683F00005E3F0000683F0000C23E000031
:105490003A3F00003A3F00005E3F0000C23E00007D
:1054A000BA3E0000BA3E0000BA3E00006E3F000067
:1054B0002C43000026430000264300001C4300004C
:1054C0007C4200007C420000124300001C430000AC
:1054D0007C420000124300007C4200001C4300009C
:1054E0007A4200007A4200007A420000B443000091
:1054F0004300232D302B2000686C4C006566674507
:10550000464700303132333435363738394142433B
:1055100044454600303132333435363738396162EC
:105520006364656600FFFFFFF8B5C046F8BC08BCC1
:105530009E467047390400002D0C00009D2200009B
:10554000BD24000061380000A1390000E13A0000EC
:10555000000000009C04002024050020AC04002072
:105560007C0400200C0500200A0400003D0E000011
:105570003D0E00003D0E00003D0E00003D0E0000FF
:105580003D0E00003D0E00003D0E00003D0E0000EF
:105590003D0E00003D0E00003D0E00003D0E0000DF
:1055A0003D0E00003D0E00003D0E00003D0E0000CF
:1055B0003D0E00003D0E00003D0E00003D0E0000BF
:1055C0003D0E00003D0E00003D0E00003D0E0000AF
:1055D0003D0E00003D0E0000FFFFFFFFFF0000003A
:1055E000E80800200107081201010100000040C086
:1055F000168904000201020301001803540065002B
:1056000065006E00730079006400750069006E002B
:105610006F0009029500030100C032080B0002026E
:105620000201040904000001020201000524001027
:1056300001052401010104240206052406000107D6
:1056400005810310004009040100020A0000000760
:105650000502024000000705830240000009040221
:10566000000201030000072401000141000624029A
:1056700001010006240202020009240301030102C1
:10568000010009240302040101010009050502408B
:105690000000000005250101010905840240000009
:1056A0000000052501010300180354006500650092
:1056B0006E007300790020004D004900440049004D
:1056C000040309040C0300000000000000000000B7
:1056D00000000000000000000000000000000000CA
:1056E00000000000000000000000000000000000BA
:1056F000000000000000000000000000F054000066
:105700000000000000000000000000000000000099
:105710000000000000000000000000000000000089
:105720000000000000000000000000000000000079
:10573000000000000000000000000000FC0300204A
:00000001FF
