:1000000000180020C1000000E5220000B12200001D
:10001000B1220000B1220000B1220000B122000094
:10002000B1220000B1220000B1220000E522000050
:10003000E5220000B1220000E5220000A12200001C
:10004000E5220000E5220000E5220000E522000094
:10005000E5220000E5220000E5220000E522000084
:10006000E5220000E5220000E5220000E522000074
:10007000D12800005D2D0000E1320000E5220000E3
:10008000E5220000E5220000E5220000E522000054
:10009000E5220000E522000001380000E522000012
:1000A00071120000E5220000E5220000E5220000B8
:1000B000E5220000E5220000E5220000E522000024
:1000C00038B502F013F9454A454B1A60454A464B8C
:1000D0001A60464A464B1A60464B0822197811426C
:1000E00002D019780A431A70434B2A221A7000234F
:1000F000424A43499A188A4204D24249C9580433B1
:100100001160F5E7404B41491A1F181D00238A4230
:1001100002D21360031CF6E73D493E4A5958101CB1
:1001200099500433C02BF7D100239A083A49920022
:10013000521803211940C9001568FF248C40A543BB
:100140002C1C80258D40291C214301331160202B5C
:10015000EBD1324B8A221860314B1A70314B24227A
:100160005A70A0221A709A799107FCD59A79D5060F
:10017000FCD498790C212B4A01400829F9D103219C
:100180001171402151719A799106FCD59A795506E1
:10019000FCD52549254A1160224A20211170997900
:1001A0000C220A400C2AFAD1214A224B1A60224A18
:1001B000224B1A60224B00221A60224B07221A603F
:1001C000214A224B1A6062B600F02CFF04F0C4F9F9
:1001D00002F092F802F00EF8FEE7C046300004F09C
:1001E00034800440823F0000388004400100000F4A
:1001F0003C80044002D0074000E00740700200202D
:10020000F403002030520000F8030020D40800203E
:100210000000000000F9FF1F00E400E008ED00E02E
:100220000050064000400640000001104480044099
:10023000C0000505048004407FBB000014E000E01E
:1002400018E000E010E000E00000202020ED00E0D9
:10025000FFFFFFFFFFFFFFFFFFFFFFFFFFFFFFFFAE
:10026000FFFFFFFFFFFFFFFFFFFFFFFFFFFFFFFF9E
:10027000FFFFFFFFFFFFFFFFFFFFFFFFFFFFFFFF8E
:10028000FFFFFFFFFFFFFFFFFFFFFFFFFFFFFFFF7E
:10029000FFFFFFFFFFFFFFFFFFFFFFFFFFFFFFFF6E
:1002A000FFFFFFFFFFFFFFFFFFFFFFFFFFFFFFFF5E
:1002B000FFFFFFFFFFFFFFFFFFFFFFFFFFFFFFFF4E
:1002C000FFFFFFFFFFFFFFFFFFFFFFFFFFFFFFFF3E
:1002D000FFFFFFFFFFFFFFFFFFFFFFFFFFFFFFFF2E
:1002E000FFFFFFFFFFFFFFFFFFFFFFFFFFFFFFFF1E
:1002F000FFFFFFFFFFFFFFFFFFFFFFFFFFFFFFFF0E
:10030000FFFFFFFFFFFFFFFFFFFFFFFFFFFFFFFFFD
:10031000FFFFFFFFFFFFFFFFFFFFFFFFFFFFFFFFED
:10032000FFFFFFFFFFFFFFFFFFFFFFFFFFFFFFFFDD
:10033000FFFFFFFFFFFFFFFFFFFFFFFFFFFFFFFFCD
:10034000FFFFFFFFFFFFFFFFFFFFFFFFFFFFFFFFBD
:10035000FFFFFFFFFFFFFFFFFFFFFFFFFFFFFFFFAD
:10036000FFFFFFFFFFFFFFFFFFFFFFFFFFFFFFFF9D
:10037000FFFFFFFFFFFFFFFFFFFFFFFFFFFFFFFF8D
:10038000FFFFFFFFFFFFFFFFFFFFFFFFFFFFFFFF7D
:10039000FFFFFFFFFFFFFFFFFFFFFFFFFFFFFFFF6D
:1003A000FFFFFFFFFFFFFFFFFFFFFFFFFFFFFFFF5D
:1003B000FFFFFFFFFFFFFFFFFFFFFFFFFFFFFFFF4D
:1003C000FFFFFFFFFFFFFFFFFFFFFFFFFFFFFFFF3D
:1003D000FFFFFFFFFFFFFFFFFFFFFFFFFFFFFFFF2D
:1003E000FFFFFFFFFFFFFFFFFFFFFFFFFFFFFFFF1D
:1003F000FFFFFFFFFFFFFFFFFFFFFFFFFFFFFFFF0D
:10040000FFFFFFFFFFFFFFFFFFFFFFFFFEFFFFFFFD
:1004100010B5064C2378002B07D1054B002B02D0DA
:10042000044800E000BF0123237010BDF403002046
:10043000000000003052000008B5084B002B03D02C
:100440000748084900E000BF07480368002B03D0B5
:10045000064B002B00D0984708BDC04600000000A6
:1004600030520000F8030020F403002000000000D8
:1004700038B5051C081C0C1C04F08EF92B68021CF6
:100480005B68281C211C984738BD08B503681B68A9
:10049000984708BD08B5FFF7EBFF08BD38B5041C49
:1004A000FFF7F3FF051C201C01F038FD401938BD93
:1004B00038B5041CFFF7DCFF051C201C01F02EFDE5
:1004C000281838BD38B5041C01F06AFD051C201C35
:1004D00001F024FD281838BD38B5041C01F060FD7A
:1004E000051C201C01F01AFD401938BD10B5041C74
:1004F00000F05AFD2368C01A10BDFFFF10B50A486E
:10050000FFF7F4FF094C20600E2000F0F7FC434297
:1005100043416360A36801210133A360044B1A784F
:100520004A401A7010BDC046A004002030040020CC
:100530007C04002010B5141CC6B01A0CD2B2031CE7
:100540000091019406A8054904F004F906A904489D
:10055000FFF7AEFF01F090FC46B010BDD04D00009B
:1005600094060020031C413B192B01D8203004E0E5
:10057000031C613B192B01D82038C0B27047FFFF24
:1005800008B5FFF7EFFF011C0248FFF787FF01F0F6
:1005900073FC08BD9406002010B5054C0021201CFA
:1005A0002C2204F021F801235B42636010BDC04699
:1005B0005004002038B572B6FFF7EEFF0F4C002153
:1005C000201C102204F010F80D4B1A1C23CC23C25F
:1005D000246814604C229A730A4B53229A730A4B74
:1005E00047229A73094B41229A73094B4D229A7301
:1005F000084B00221A7062B638BDC0468004002045
:1006000030040020A40400209004002040040020B6
:10061000100400207C04002008B51120012100F006
:100620007FFC1020012100F07BFC1520012100F04F
:1006300077FC0D20012100F073FC1020012100F057
:100640006FFC1120012100F06BFC0E20022100F054
:1006500067FC1420002100F063FC0F20002100F053
:100660005FFC04220E20064900F0EAFB054B012145
:100670000D20197000F022FCFFF79CFF08BDC0465A
:10068000FD0400007C04002070B51520012100F05D
:1006900015FCFA25AD00142000F0D8FA061C12480B
:1006A000FFF724FF114C011C201C01F079FC201CD9
:1006B0000F49FFF7EFFE31B2201CFFF703FFE123E4
:1006C0005B01013BFDD1013D002DE4D1291C15202A
:1006D00000F0F4FB01F0D0FB0649201CFFF7E8FE18
:1006E00001F0CAFB70BDC046A004002094060020A3
:1006F00076510000DF4D000073B5041E5A2C0BD15B
:1007000072B600F051FC994B1860FFF745FF984B0B
:1007100001221A7062B600E154280ED1954C964918
:10072000201CFFF7B7FE9148FFF7E0FE0022011CF6
:10073000201C01F005FC201C4EE0502800D1ECE00C
:10074000442803D10A2000F053FCE6E0031C313BAF
:10075000082B07D88548FFF7C9FE2F3C844BA4001F
:10076000E05001E1522819D1814A00255368591CF3
:100770005160082902DCD91C89008D587D4C991CD8
:10078000201C01F00DFC7D49201CFFF783FE201C7E
:10079000291CFFF797FE01F06FFBE5E049281ED109
:1007A000734B012252425A6000241E1C744B013BC1
:1007B000FDD16E48FFF79AFEA3006E4D211CF31881
:1007C00031319860C9B2281C0134FFF75EFE01F098
:1007D00053FB092CEAD1281C01F0A0FBDBE74628DB
:1007E00002D1FFF7E7FE98E056280FD1FFF7BAFED7
:1007F000604C011C201CFFF748FE201C6149FFF7DC
:1008000049FE201C6049FFF753FEC4E747280CD17E
:100810005E4C58482168FFF75FFE01F02DFB002376
:100820002360A360012323739EE0412801D1584B2C
:1008300024E0422819D14D48FFF758FE0022051C3C
:100840005449172001F014FC201CFFF78BFE494C83
:10085000011C201CFFF719FE201C4A49FFF71AFE55
:10086000201C291CFFF738FE95E7532803D11720D9
:1008700001F092FC51E04D2806D1474B00221A604E
:100880009A6001221A7347E04E2825D1374E434A19
:10089000316801A88B180193FFF728FE051C201C66
:1008A000FFF760FE334C011C201CFFF7EEFD3549BD
:1008B000201CFFF7EFFD291C201CFFF70DFE01F0A7
:1008C000DBFA301CFFF712FEA842FAD3344801F0DD
:1008D00073F801F0BBF847E043280ED1142000F074
:1008E000B5F9304C0123191C221C6E2800DC0023B2
:1008F000636051731173432017E0632804D1294BBF
:1009000000225A731A7308E0452801D1254C12E0E1
:100910004C2804D1244B01225A73201C05E06C287A
:1009200006D1214B00225A736C20FFF729FE1BE0F1
:100930004A2809D11C4CE36820686168A268FFF767
:10094000F9FD0023A3600FE0552804D1FFF718FE3E
:10095000FFF79AFE08E0074D1449281CFFF79AFD9F
:10096000281C211CFFF79AFD73BDC046A00400207F
:100970005004002094060020E34D0000F74D0000D5
:10098000102E000076510000E64D0000900400207B
:10099000400400208813000010040020F0D8FFFF5E
:1009A00009903C63A404002030040020E84D0000BE
:1009B000F8B5494C0D20217800F080FA474D2B7B8B
:1009C000002B13D00F2000F041F9E1239B00984247
:1009D0000CDD4348FFF78AFDAB6801220133AB60B1
:1009E00000232B7323782860534023703D4D2B7BCD
:1009F000002B11D0162000F029F914280CDD3848FE
:100A0000FFF774FDAB6801220133AB6000232B7349
:100A10002378286053402370334D2B7B002B11D05B
:100A2000002001F02DF800280CD02D48FFF75EFDC6
:100A3000AB6801220133AB6000232B73237828605D
:100A400053402370294D2B7B002B19D0142000F02C
:100A5000FDF86968002902D16E2802DC10E05928EF
:100A60000EDC1F48FFF742FDAB6801220133AB608B
:100A700023786E68534023707342734128606B6023
:100A8000002472B61A4B0021E3585A7B8A420BD0DD
:100A90009F688F4208DD174A1D1C101CC4CDC4C0BE
:100AA0002D6805609960012162B6002906D0114BBE
:100AB000186859689A68DB68FFF73CFD0434142C09
:100AC000DFD101F051F9002804D001F005F9C0B2DE
:100AD000FFF712FEF8BDC0467C0400209004002001
:100AE000A00400204004002010040020A4040020E2
:100AF000740200202004002008B500F055FA014BD4
:100B0000186008BDA0040020F0B572B61B4B1A781F
:100B1000002A30D01A4A10681A4A16681A4A301841
:100B200015681A4A40191468194A00191168194AB7
:100B3000401812681849801880B2184A40081043BB
:100B400080B208601648174909680768164879187E
:100B50000668164889190568154849190468154832
:100B600009190068091889B249080A43124992B262
:100B70000A6000221A7062B6F0BDC046B5040020BB
:100B800038B003403CB0034040B0034044B00340A1
:100B900048B003404CB003402CB003400080FFFF3E
:100BA0005CB0034058B0034060B0034064B0034001
:100BB00068B003406CB0034030B003401B4B1C4A8C
:100BC00019781C4B082901D1002102E00A2903D120
:100BD00038211160132206E00C2901D1342100E0F4
:100BE0003C21116012221A60134B1A78134B002A11
:100BF00001D0002200E001221A60114B1A78114B3B
:100C0000012A01D880220CE0042A01D8842208E0BD
:100C1000082A01D8852204E0102A01D8862200E0A3
:100C200087221A60084B01221A7070478802002040
:100C300008B003400CB00340B704002020B00340CC
:100C40008902002024B00340B504002070B5031EC3
:100C50000C2B0DD9021C0E3AD2B20C2A07D91A1C41
:100C6000263A193B0020DBB2012A32D800E0131CDF
:100C7000184AD45C184B1B78002B01D0FFF744FFB7
:100C800072B6164B1022610605D51968914319609A
:100C90003F231C4002E019680A431A60104B114DB3
:100CA00001221C602A7062B61E1C72B633681A06D6
:100CB00008D50D4B186800232B7062B60B4B1B78C0
:100CC000184106E02B78002BDBD062B601F0C4FAA5
:100CD000EBE770BDF94D0000B50400200CB00340F7
:100CE00000B00340B604002010B00340B40400205C
:100CF000434B10B51C681C60230705D5414B5A6A4D
:100D0000002A01D05B6A9847E30605D53D4B9A6AF5
:100D1000002A01D09B6A9847630605D5394BDA6AE9
:100D2000002A01D0DB6A9847230605D5354B1A6B9C
:100D3000002A01D01B6B9847A30605D5314B5A6B8F
:100D4000002A01D05B6B9847E30705D52D4BDA6B82
:100D5000002A01D0DB6B9847A30705D5294B9A6D74
:100D6000002A01D09B6D9847630705D5254BDA6DA6
:100D7000002A01D0DB6D9847234B1C681C60E307F9
:100D800005D5204B9A68002A01D09B689847230616
:100D900005D51C4B5A69002A01D05B699847E306C8
:100DA00005D5184B9A69002A01D09B6998476307BB
:100DB00005D5144BDA69002A01D0DB69984723076F
:100DC00005D5104B1A6A002A01D01B6A9847A30761
:100DD00005D50C4B9A6B002A01D09B6B9847A30654
:100DE00005D5084B1A6D002A01D01B6D9847630684
:100DF00005D5044B5A6D002A01D05B6D984710BD94
:100E0000A0B00440B8040020A0C004400A4B10B5B4
:100E10001C681C60A30705D5084BDA68002A01D0BE
:100E2000DB689847630705D5044B1A69002A01D08F
:100E30001B69984710BDC046A0900440B80400202C
:100E400070B5041E1A2C2CD8042A2AD8101C02F0C3
:100E5000A3FD0709050B03000B2306E00A2304E0AA
:100E6000082302E00C2300E009230C2262430D4812
:100E70000D4E82180D485268051CB8352E600C4D79
:100E8000BC30056072B60B481568A40028400A4DB6
:100E9000106061518021490408431B04184310600D
:100EA00062B670BD084E00000D0E000000F9FF1F75
:100EB000F10C0000FFFFF0FFB804002010B51A2865
:100EC00018D80C2358430C4A835810181C7D027AFA
:100ED000224205D0002901D01A710BE01A7209E0F4
:100EE00043681A68002902D003210A4301E0022165
:100EF0008A431A6010BDC046084E000000231A281D
:100F00000AD80C235843054A81581018027A0B7CE2
:100F100013405A1E9341DBB2181C7047084E000064
:100F2000F0B51A283DD80C273D1C45431D4A5419DD
:100F30006368161C012901D0042912D17843325864
:100F40003018147D007A20431075A22252001A60D6
:100F50002022042901D1196814E0196891430A1C60
:100F60001EE0AA58247A107DA0431075002902D0F3
:100F70008A1E012A12D8802252001A60022903D147
:100F80001A6803210A430BE003290AD11A680221D7
:100F90000A431A601A6801218A4301E00422FF32E1
:100FA0001A60F0BD084E000072B60C4B0C491A686E
:100FB0000C4B1B68096862B6480104D53221914286
:100FC000894149425B18FA20800043430648821A4F
:100FD00006484243920D98187047C04618E000E05A
:100FE00004ED00E0240500207FBB00005555010002
:100FF00038B5041CFFF7D8FF051C002C0FD0FFF7F5
:10100000D3FF074B401B984206D9013C002C06D069
:10101000FA239B00ED18F2E701F01EF9EFE738BD67
:10102000E70300001C4B8022D20510B51A60802215
:1010300012061A60194B002018601949194B1A4AF8
:10104000196028231360194A194C1360194A136058
:10105000194A1360194A1360194A13600922226061
:10106000184C2060184C2160184C2360184C2360E9
:10107000184C2260184C20601848016018490B6019
:1010800018490B60184B1A60FFF798FDFA20FFF71C
:10109000AFFF00F0D7FB10BD00E100E0048003408B
:1010A000FFBF0000088003400C8003401480034011
:1010B000008003401C800340248003402C800340B8
:1010C0003480034004900340089003400C90034098
:1010D000149003400090034004A0034008A0034084
:1010E0000CA0034014A0034000A00340F0B50B4F38
:1010F00002223B780A4E1A43D2000A4DB4186060AF
:1011000028788824002800D0C82409040C43B4504F
:1011100001225040534028703B70F0BD9C050020D8
:1011200000F8FF1F1C060020431E10B5042B0FD82B
:1011300072B6084A99008858002807D044685B00B6
:101140008C50054A01889C5A611A995262B600E097
:10115000002010BD8805002078080020431E0020D4
:10116000042B09D872B6054A9B009B58002B02D06D
:1011700001305B68FAE762B67047C046E0050020C0
:1011800038B572B60123164A9A18013A1278110737
:101190001CD5144A5C01A5589900002D05D11319DE
:1011A00008305860104BA3500AE001242143C900C5
:1011B0008C58002C0AD15318083058600B4B8B50B8
:1011C0000B4B1A78013A1A7062B608E00133062B0D
:1011D000D9D162B6064B00221A7000F0A7FB38BDC9
:1011E000704F000000F8FF1F88004000C80040005A
:1011F00012060020421E10B5042A30D802238000B7
:101200001843174BC0001B1872B6164CA05C03287D
:1012100009D802F0C1FB140216050833022011E0C0
:10122000083304200EE01048920014580F4B002C95
:1012300001D1115001E09858416099500EE003200F
:1012400000E00520A0540A1C08325A6088221807C2
:1012500000D5C822098809040A431A6062B610BD85
:1012600000F8FF1F40050020E0050020F4050020E5
:10127000F7B5B6490C780E1CE4B262071FD5B44B23
:101280001B78002B18D0B34A1378DBB2002B05D0A3
:10129000013BDBB21370002B00D100BEAE4A1378C5
:1012A000DBB2002B06D0013BDBB21370002B01D167
:1012B00000F010FE00F0CAFBA44D04232B7008259B
:1012C000221C2A4000D154E2A44BA54C1B78DBB26F
:1012D0001E099A08002E00D0DDE1D50065192F689F
:1012E0006A68B806000F01380C2800D9D0E102F076
:1012F0005DFB93019301CF01CF01CF01CF01CF015E
:10130000CF01AC01CF01CF01CF010D00954913688A
:10131000954F526895482960954D964900263B6047
:101320007A609BB201222E602661A66102708B4218
:1013300018D8D021C9008B4200D3E5E0812191402B
:101340008B4200D1C2E006D8802B00D1A9E0822BCD
:1013500000D1ABE0F5E0884A934200D1C5E0A0227D
:10136000D20017E085498B4200D152E10DD8882187
:1013700009018B4200D18EE090221201934200D0ED
:10138000DFE0BA78724B1A7009E07D4A934200D1CF
:10139000CFE07C4A0026934200D115E1D1E0A319A9
:1013A000196A090603D5586A083800F0BFFA0836EA
:1013B000A02EF4D100252E1C734AA858002805D071
:1013C0004368019300F0B2FA0198F7E76E496F4B5A
:1013D0006F4A4851E850A858002805D04368019347
:1013E00000F0A4FA0198F7E76A4B6B4AE8507300E3
:1013F000D0526749694B4851F05C0238032807D83E
:1014000002F0CAFA02040204002200E001229A5506
:1014100001360435052ECFD1614A00231370012512
:10142000161C604BEA18604B9200EB18013B1B78CE
:101430001370190720D500F05BFA6B01002805D066
:10144000E21808305060594AE25003E0E050337827
:101450000133337000F04CFA0122AB001343DB0080
:10146000002805D0E218083050603E4AE25003E000
:10147000E050337801333370AB0002221A43D200BC
:101480000021A1500322134393400135E150062D62
:10149000C7D10E1C98E02E4B454C1B78161C2370B0
:1014A00093E0434C2670667002268EE0BB88052BC5
:1014B00047D83F4C3F4D9B00267066705B191B78E8
:1014C0000226334200D180E022707EE0BA887F237A
:1014D0001340052B35DC7E88002E32D135499B0028
:1014E0005B181A7802218A4329E0BA887F231340C7
:1014F000052B26DC7E88002E23D12E4A9B009B18CC
:101500001A7802210A431AE07A88B9882A4B5C6863
:10151000002C16D01888904209D15888884206D1EC
:10152000120A032A01D126784FE01E894DE00C33C0
:10153000EDE7224B1A68224B1A60BA78214B1A70D9
:1015400042E01C4B0F221A7063E0C0468020074027
:101550001B0600209D050020580600209020074013
:1015600000F8FF1FC8004000080600201C060020ED
:101570002805002081060000020300002120000051
:101580002122000021230000880500202C050020D6
:10159000E0050020F4050020780800204005002028
:1015A0001206002030C80110704F00008800400073
:1015B00013060020C0200740784F000024050020BB
:1015C000CC08002068060020341CFB889E4200D90D
:1015D0001E1C371E402F00D94027201C391CFFF746
:1015E00085FDE419F61B03D1351C402F04D010E013
:1015F0004025B54200D9351C201C291CFFF776FD7B
:101600006419761B01D1402D03D1754D754B2C60AB
:101610001E800122744B3AE0744B1988744B994236
:1016200010D10023D05C7349C8540133072BF9D182
:101630000B68862B02D1704B0F221A700020011C00
:10164000FFF754FD6D4B2B6022E0654F3D68002D88
:1016500013D064490E88341E402C00D94024281C25
:10166000211CFFF743FD361B5E4AB6B21680002EE2
:1016700001D1402C00D12E193E605C4BA02219886C
:10168000D200914204D100225A709A785C4B1A70B1
:101690000122554B61E0D200A4186068013E083871
:1016A000F6B22B4036D000F041F95649B00042580E
:1016B000554B002A1BD055684550111C985D0831C8
:1016C000616003280BD802F067F9020406080321C1
:1016D00004E0022102E0052100E00421995588235D
:1016E000270700D5C8231288120413433CE0985DF5
:1016F000032808D802F050F939390204002200E02A
:1017000001229A5531E02C40624262410324A41A1E
:101710009C552AE062880280002A20D03B4D4380FD
:101720004360B3005F593A49002F01D1585101E09D
:10173000CD586860C850374B7600F15A5218F252B3
:1017400000F0D6F8002804D00830606021070AD5E0
:1017500007E0314B20601A7801321A7005E02C4204
:1017600001D0264B00E02D4B23602D4A0823137037
:101770007FE5012004421ED01B4902230B70294B38
:10178000264C1A70284B294D1C609C60284C1A610D
:10179000DC609A615D60274B0D241C70264CFF2392
:1017A0002370174C33702270244A1370244B9F22ED
:1017B0001A70087013E063B2002B04DA1D4B0D227F
:1017C0001A708023337002231C4204D01A4A117805
:1017D000C9B21170337010231C4200D03370F7BDB2
:1017E000280500201006002094200740080600204D
:1017F00021200000C40800209D050020C8004000F2
:1018000098200740E00500204005002088050020C2
:101810002C050020780800201206002088004000D7
:10182000802007409C05002000F8FF1F480500208D
:10183000A0050020C0200740882007408C200740DA
:101840008420074010B501F0C1FD00221A4B002191
:10185000D150981808324160A82AF7D1174A802041
:101860001468C00220431060180A154AC0B21070F4
:10187000180C144AC0B21070134A1B0E1370134A8E
:10188000FF231370124A13481370134A1370012276
:1018900002701248017012490A70124A1168994385
:1018A0000B1C70210B4313600F4B802252041A60F3
:1018B0000E4B10221A7010BD00F8FF1F3480044038
:1018C0009C200740B0200740B420074080200740FC
:1018D000882007409420074010200740002107403F
:1018E0008420074018E400E000E100E00821074000
:1018F00038B572B60B4C2568281C02F0EBF81D2891
:1019000002D962B600200CE080231B06C3409D4331
:10191000256062B648235843034B18180023036020
:10192000436038BD8C02002000FAFF1F10B5041C74
:101930000E484821201A02F043F81D2815D80C4BF8
:101940001B78002B07D00B4B1B78002B03D0201CDF
:10195000FFF716FC09E072B68022074B1206C24060
:10196000101C1A681043186062B610BD00FAFF1F01
:10197000120600201B0600208C02002038B50B4CFC
:10198000051C21783C2908D1094B1B68002B04D089
:101990000848002298470023237023783B2B03D864
:1019A0005A1C2270034AD55438BDC0468308002013
:1019B0004806002087080020F8B51F4D1F4C012362
:1019C0002B702368061C002B1DD11D4F1D4B1B784F
:1019D000002B2FD00420FFF7C1FB052804D9013FBD
:1019E000194B002F06D108E0FFF782FF2060002886
:1019F000F5D008E01A78002A02D001221A7019E006
:101A000000F02AFCE2E7104B002221681A704A8895
:101A1000531C92008A1896600F2B01D84B8007E068
:101A200040230B800420FFF7E5FBFFF761FF2060F8
:101A300000232B70F8BDC046380600204006002069
:101A4000E14200001B0600204406002010B50A4BAE
:101A50001B78002B0ED1094C216800290AD04B8835
:101A6000002B07D09B000B800420FFF7C3FBFFF780
:101A70003FFF206010BDC046380600204006002011
:101A8000F8B5834C071C2368251C002B12D1814B11
:101A90001B78002B00D1E2E00520FFF745FB20601A
:101AA000002800D1DBE00688002E03D1FFF73EFFBF
:101AB0002660D4E0286843889A08920082189468C7
:101AC00002880433934201D2438005E0FFF72EFFE2
:101AD0000520FFF729FB28600F23251C1D40200A45
:101AE000061C2A1C1E40083A0136062A00D980E04E
:101AF000002F02D0B74200D0B1E0220B1340082DD6
:101B00000AD1082B00D0AAE0634B00221A70634B65
:101B10001B68934232D163E0092D1AD1092B00D002
:101B20009DE0220E5C4B210C002A09D00120187088
:101B30005B4B1B68002B53D0F0B2C9B2D2B206E0A7
:101B40001A70564B1B68002B4AD0F0B2C9B29847A6
:101B500046E00A2D07D10A2B00D080E04E4B02222E
:101B60001A70504B07E00B2D0DD10B2B77D14A4B40
:101B700003221A704C4B1B68002B31D0210CF0B2A1
:101B8000C9B2220EE3E70C2D06D10C2B67D1424BD4
:101B900004221A70454B07E00D2D0DD10D2B5ED19F
:101BA0003D4B05221A70424B1B68002B18D0210CAC
:101BB000F0B2C9B2984713E00E2D50D10E2B4ED182
:101BC000354B06221A703B4B1B68002B08D0FE21B8
:101BD000620C890111406202520EF0B21143984723
:101BE000354B220C1E70354B240E1A70344B1C7072
:101BF0004CE0042D08D1C0B2FFF7C0FE200CC0B2EB
:101C0000FFF7BCFE200E28E06B1F022B1ED8C0B2CF
:101C1000FFF7B4FE052D08D0200CC0B2FFF7AEFED2
:101C2000072D02D1200EFFF7A9FE264B234A197873
:101C3000117000221A70184B07221A70224B1B6871
:101C4000002B23D02148012298471FE00F2D12D1ED
:101C50001C4B1B78002B04D0C0B2FFF78FFE002076
:101C600015E00D4B08221A70194B1B68002BB7D0DA
:101C7000C0B29847B4E7022DF1D1074B09221A7080
:101C8000144B1B68002B01D0200C98470120F8BD95
:101C90004C0600201B06002082080020240600209D
:101CA00054060020300600205006002028060020A0
:101CB000340600202C06002086080020840800201E
:101CC000850800208308002048060020870800209F
:101CD0003C0600202006002038B5114C2368002B5C
:101CE0000CD020684288531C8218157A02889342CF
:101CF00012D3FFF71BFE002323600EE0094B1B7875
:101D0000002B02D10120404208E00220FFF70CFA2C
:101D100020600028E5D1F5E74380281C38BDC04687
:101D2000640600201B06002010B50D4C2368002B14
:101D300003D02368002B0ED103E00A4B1B78002B45
:101D400002D10120404209E00220FFF7EDF92060B6
:101D50000028EED1F5E75A889B18187A10BDC046C6
:101D6000640600201B060020054B5888054B1B68A5
:101D7000002B03D01A885B88D31AC0187047C0465E
:101D80007808002064060020F7B5304D0123071CB9
:101D90000C1C2B70002C56D02D4E3068002827D1FB
:101DA0002C4A01922C4B1B78DBB2002B03D12B70F9
:101DB0000120404249E00320FFF7D0F9072808D866
:101DC00001232B70FFF794FD214B186000280FD1E1
:101DD00028700198214B01380190002802D01A7810
:101DE000002A02D001221A70E2E700F035FAD9E7A2
:101DF0001A4B002231681A704B884020C01A009498
:101E0000844200D90090181C009A08309B180818CA
:101E10004B800190A41A00230098834204D0F85C00
:101E2000019AD0540133F7E7FF184B883F2B06D9AE
:101E300040230B800320FFF7DDF900233360084BBC
:101E400005221A70A6E72C70201CFEBD5906002042
:101E50005C060020097500001B06002060060020BB
:101E60005806002007B56B46D8710733181C0121AE
:101E7000FFF78AFF0EBDFFFFF8B5124B1B78002B52
:101E80001ED0114F114B3C6801261E70104D002CC6
:101E900009D000262E70638803202380211CFFF7C1
:101EA000A9F93E6009E0FFF723FD011E04D00320DD
:101EB0002C70FFF79FF900E02E70044A0023137086
:101EC000F8BDC0461B0600205C0600205906002015
:101ED0005806002038B50E4B1D78EDB2002D15D1F7
:101EE0000C4C2168002906D04B8803200B80FFF79B
:101EF00081F925600AE0FFF7FBFC011E03D00320F7
:101F0000FFF778F902E0044B01221A7038BDC04691
:101F1000590600205C0600205806002037B5022430
:101F2000051C221C01A8054902F03CFB2B68281C5B
:101F30005B6801A9221C98473EBDC0464C4F00007B
:101F4000F0B585B06B460E338EB2144C0D0C0136D5
:101F500066436C43A5B2370CAE19F619250C2C1943
:101F6000360CA5196D080A266E43891B30311C1CDE
:101F70001970013B002D01D0291CE5E7211C002A26
:101F800003D01C1C2D224B1E1A70036804A9E243C7
:101F900052185B68211C984705B0F0BD3333000030
:101FA000002208B5914201DA49422D22FFF7C8FF0D
:101FB00008BD10B5041C01F0E5FC201C10BDFFFF9E
:101FC000214B70B518681E1C2049214A002809D0F1
:101FD000127809680A71421E511D01D10322524232
:101FE0001A6030E00B6812781A4D1A702B68002BBB
:101FF00023D0194B00211C68201C01F04DFD002846
:1020000016D1201C154901F051FD002810D11449AA
:10201000201C01F079FFFC21890502F09FF801F0F6
:1020200077FD021E272A03D90E480F4901F092FCC2
:102030002B68336000232B6005E00A4801F0A2FC06
:102040000A4BFF221A7070BD8C060020800600200B
:10205000880600208406002090060020ABAA2A4DA6
:102060000000C0416C060020C11F0000900200204B
:10207000F8B5051C0C1C1A2874D8002A08D0101CAE
:102080004843FA21890001F09BFC4600013601E03B
:1020900003267642201C02F0F7F9011C324801F0B9
:1020A0004FFD0C236B43314A041CD3185F6872B692
:1020B0002F4B19788D4215D12E4D296801F0DCFC8B
:1020C0002D4B002806D0186801220240013A9619CB
:1020D0001E6046E0294A1968166001220A402C60F9
:1020E0001A603EE0264B1A2903D826491868097859
:1020F00001701F490D700C214D4351595519081C91
:10210000083018601F4A287A1070087272B61B686F
:102110001278197B0A431A7362B6A2235B003B60F4
:10212000154B201C1E60134B00211C6001F0B4FCF9
:10213000002816D1201C144901F0B8FC002810D149
:102140001249201C01F0E0FEFC21890502F006F88E
:1021500001F0DEFC021E272A03D90D480D4901F0CB
:10216000F9FB62B6F8BDC0460024F448084E0000F2
:1021700090020020900600208C060020840600209B
:102180008006002088060020ABAA2A4D0000C0412E
:102190006C060020C11F000010B51A280FD872B6B7
:1021A000074C2378834209D1064801F0EBFB064B2C
:1021B000064A1B6812781A70FF23237062B610BD9E
:1021C000900200206C060020800600208806002077
:1021D00008B505480023037004498023044A43736B
:1021E00002F0A2F908BDC0466C060020B31F000033
:1021F0007002002008B5FEF70FFAFEF7D9FB00F0D9
:102200002BF8FAE708B5FFF7AFFD08BD08B5FFF7F3
:1022100063FD08BD08B5FFF787FD08BD08B5FFF7EA
:102220002BFE08BD08B5081CFFF71CFE08BD08B54D
:10223000081C111CFFF7A8FD08BD7047044B0022C5
:102240001A711A73FA21034A890099601A6070475B
:1022500094060020584F000010B5104C2378002B36
:102260001BD101232370FFF77FFD002801D0FFF76A
:10227000E4FF00F0BBFA002801D001F071F900F092
:10228000FBFC002801D001F00BFA00F0B7FF00289A
:1022900001D001F0A5FA0023237010BDA406002090
:1022A000024B1A6801321A607047C04624050020AC
:1022B00010B50B4C23685A0301D5FEF7D9FF2368EC
:1022C0005A0501D500F004FB23681A0501D500F07A
:1022D00045FD2368DA04ECD501F002F8E9E7C046D1
:1022E0003480044008B5FFF7E3FFFFFF014B0022F5
:1022F0001A607047008104407047FFFF024A13686C
:1023000018181060181C704794020020EFF3138017
:10231000002821D1EFF31082002A1FD1EFF30583AB
:10232000002B0FD0101C0F2B0ED91A1C103A92083C
:102330000B49032092000340521883401068D84094
:10234000C0B201E080204000EFF31182002A05D0E6
:10235000824203D2101C01E0012040427047C04677
:1023600000E400E0F8B5061C0D1C171C0024301C0E
:10237000391C01F069FB092901D8303100E03731FF
:10238000C9B22955301C391C01F01AFB061E01D0B8
:102390000134ECE72B1958702B1C5A1BA24206DAA9
:1023A0001A78295D19702A550133013CF5E7281C7C
:1023B000F8BDFFFF264B80221968D2000A431A603D
:1023C000244A00231370244A1370244A1370244AA9
:1023D0001370244A1370244B1B78032B09D0152B40
:1023E00004D0002B08D1214A214B04E01F4A214B85
:1023F00001E0214A214B1A60214B1B78042B0BD0A2
:10240000052B05D0012B0BD1D12292001D4B06E0EC
:10241000D12292001C4B02E091221C4B92001A60C8
:102420001B4BC204D20E1A70C0B2002258709A70B0
:102430002C22DA70174BFF22196891430A1C4021A5
:102440000A431A60144B802252011A607047C0463A
:102450003480044031070020AD06002038070020FA
:1024600032070020AC060020EE0600201303000017
:1024700040A0044018C0044013020000049004402F
:102480009802002044A004401CC00440089004406E
:1024900000A006400CE400E000E100E010B5124BA3
:1024A000132299789143032202400A43410701D540
:1024B00010210A439A700F220B490240042A03D1CB
:1024C0008A79402422438A715A7910218A4308422A
:1024D00000D00A435A719A7910218A43840600D5A4
:1024E0000A439A7110BDC04600A0064008B5124BC1
:1024F0001B685A051ED5114B1B78DBB2002B02D08E
:10250000FFF7AAFEF7E70E4A8021490111600D4A44
:102510000D49D3700422FF320A600C490A600C4A4C
:1025200013700C4A13700C4B1B68002B02D00B4A23
:1025300012781A7108BDC04634800440AC060020F1
:1025400080E100E000A0064040A0044044A0044018
:1025500031070020AD060020A8060020EF0600206D
:1025600038B5041C0B4B1D78EDB2002DFAD1201CA0
:102570000121FEF7D5FC291C201CFEF79FFC0C2234
:102580005443054B054AE1581C191160044B227A4B
:102590001A7038BDAC060020084E00003407002039
:1025A0003007002030B5002901D0802318431B4A92
:1025B0001378141C984230D0194A126855052BD54F
:1025C0007F221340042B09D0052B04D0012B08D106
:1025D0000022144B04E00022134B01E0134B0022B5
:1025E0001A604423002900D060237F220240042A7D
:1025F0000DD0052A06D0012A0ED1C0229200134325
:10260000084A08E0C02292001343074A03E08022F0
:1026100092001343054A1360207030BD98020020D9
:102620003480044044A004401CC00440089004408E
:1026300010B5144A1378984222D0134909684C0502
:102640001DD5032B09D0152B04D0002B08D10F4921
:102650000B6005E000210E4B01E00E4B00211960DC
:10266000032809D0152804D0002808D10A49074BAF
:1026700004E00949064B01E00849064B1960107057
:1026800010BDC046EE0600203480044040A0044047
:1026900018C004400490044013030000130200001B
:1026A00038B50E4B1A680023510514D50C4C1A2866
:1026B00010D80C2343430B4A0B4D9958D3181B7A5F
:1026C000216001212B70FEF72BFC23682A781A72F7
:1026D000012300E02360181C38BDC046348004404C
:1026E000A8060020084E0000EF06002000207047DA
:1026F000F8B5214B071C1B685A053BD51F4B1B68BF
:10270000002B02D01E4A12781A711E4E0023347814
:102710003F220134A2425B415B421C401A4D2B78A0
:10272000A3421CD1FFF7F2FD402813DC174A1379AE
:102730005BB2002BF2DA2B78002101333F20984264
:10274000494149420B401249C95CDBB2C9B2D1715F
:102750002B70E3E7FF28E1DDFFF77EFDDEE70C4BA2
:10276000FFB21F550B4B01221A70084BE4B2AC228A
:102770003470DA70F8BDC04634800440340700205D
:1027800030070020380700203207002000A0064054
:10279000AE060020AC06002038B5041C4518AC423B
:1027A00004D02078FFF7A4FF0134F8E738BDFFFF1D
:1027B00008B5044B1B78002B02D0FFF74DFDF8E75E
:1027C00008BDC046AC060020064B074A1B781078AF
:1027D000DBB2C0B2834201D33F3000E00138C01AFF
:1027E0007047C0463807002032070020054B187894
:1027F000054BC0B21B78DBB2984200D24030C01A01
:102800007047C04631070020AD06002010B5124BBE
:1028100012491A780B78D2B2DBB29A4219D001333E
:102820003F2400209C424041404203400C48DCB21F
:10283000C05C0C700B49C0B2096800290BD09A42E9
:1028400000D24032D31A1A2B05DC074B1B780B72CF
:1028500001E00120404210BD31070020AD060020FC
:10286000F0060020A8060020EF0600200A4B1A7888
:102870000A4B1B78DBB29A420AD0013300223F2177
:102880009942524152421340054AD05CC0B201E025
:10289000012040427047C04631070020AD060020AD
:1028A000F0060020064B1A78064BD2B21A70064B7F
:1028B0001B68002B02D0054A12781A727047C04676
:1028C000AD06002031070020A8060020EF060020FA
:1028D00030B5254A1379990612D52449D4790B7855
:1028E000002001333F259D424041404203402048A3
:1028F000E4B20078834203D01E48C454DBB20B70AC
:10290000D178194CC9B24BB2002B1ADA23795BB2D9
:10291000002B16DA184B19481D780378DBB29D425C
:1029200002D16C23E3700CE0013300243F259D426B
:10293000644164422340124CE45CDBB2E4B2D471E3
:102940000370402319420ED0117919420BD00D4B60
:10295000002119700C4B1B688B4202D00B4909787F
:1029600019722C23D37030BD00A00640310700201F
:10297000AD060020F00600203807002032070020B6
:10298000AE060020AC0600203407002030070020EF
:10299000164B8022196812010A431A60144A002358
:1029A0001370144A14491370144A1370144A1370A4
:1029B000144A1370144A1160144AD121890011601D
:1029C000134AC104C90EC0B21170507093702C2309
:1029D000D370104B104A19680A408021C9010A437C
:1029E0001A600E4B802292011A60704734800440B6
:1029F000AC0700204107002013030000B4070020AB
:102A0000AD070020400700200CB0044010B0044087
:102A100000B006400CE400E0FF00FFFF00E100E032
:102A200010B5124B132299789143032202400A43B6
:102A3000410701D510210A439A700F220B49024029
:102A4000042A03D18A79402422438A715A791021B9
:102A50008A43084200D00A435A719A7910218A4366
:102A6000840600D50A439A7110BDC04600B00640E6
:102A700008B5124B1B681A051ED5114B1B78DBB22B
:102A8000002B02D0FFF7E8FBF7E70E4A802189010F
:102A900011600D4A0D49D3700422FF320A600C49BF
:102AA0000A600C4A13700C4A13700C4B1B68002B05
:102AB00002D00B4A12781A7108BDC0463480044017
:102AC0004007002080E100E000B006400CB0044068
:102AD00010B00440AC070020410700203C07002054
:102AE0006A07002038B5041C0B4B1D78EDB2002D91
:102AF000FAD1201C0121FEF713FA291C201CFEF735
:102B0000DDF90C225443054B054AE1581C191160AC
:102B1000044B227A1A7038BD40070020084E00008E
:102B2000B0070020AB0700207047704738B50E4B48
:102B30001A680023110514D50C4C1A2810D80C2340
:102B400043430B4A0B4D9958D3181B7A216001213E
:102B50002B70FEF7E5F923682A781A72012300E04A
:102B60002360181C38BDC046348004403C07002058
:102B7000084E00006A07002000207047F8B5214B7E
:102B8000071C1B681A053BD51F4B1B68002B02D086
:102B90001E4A12781A711E4E0023347827220134FF
:102BA000A2425B415B421C401A4D2B78A3421CD1D0
:102BB000FFF7ACFB402813DC174A13795BB2002BFC
:102BC000F2DA2B780021013327209842494149420B
:102BD0000B401249C95CDBB2C9B2D1712B70E3E77B
:102BE000FF28E1DDFFF738FBDEE70C4BFFB21F5596
:102BF0000B4B01221A70084BE4B2AC223470DA702D
:102C0000F8BDC04634800440B0070020AB07002068
:102C1000B4070020AD07002000B0064042070020A6
:102C20004007002038B5041C4518AC4204D0207879
:102C3000FFF7A4FF0134F8E738BDFFFF08B5044BE8
:102C40001B78002B02D0FFF707FBF8E708BDC04652
:102C500040070020064B074A1B781078DBB2C0B251
:102C6000834201D3273000E00138C01A7047C046C4
:102C7000B4070020AD070020054B1878054BC0B203
:102C80001B78DBB2984200D24030C01A7047C04671
:102C9000AC0700204107002010B5124B12491A78EA
:102CA0000B78D2B2DBB29A4219D001333F24002014
:102CB0009C424041404203400C48DCB2C05C0C7076
:102CC0000B49C0B2096800290BD09A4200D24032A9
:102CD000D31A1A2B05DC074B1B780B7201E001207D
:102CE000404210BDAC070020410700206B070020C8
:102CF0003C0700206A0700200A4B1A780A4B1B7811
:102D0000DBB29A420AD0013300223F21994252415C
:102D100052421340054AD05CC0B201E0012040425B
:102D20007047C046AC070020410700206B07002019
:102D3000064B1A78064BD2B21A70064B1B68002B52
:102D400002D0054A12781A727047C0464107002027
:102D5000AC0700203C0700206A07002030B5254A58
:102D60001379990612D52449D4790B7800200133C0
:102D70003F259D424041404203402048E4B2007854
:102D8000834203D01E48C454DBB20B70D178194C77
:102D9000C9B24BB2002B1ADA23795BB2002B16DAD8
:102DA000184B19481D780378DBB29D4202D16C2381
:102DB000E3700CE00133002427259D426441644206
:102DC0002340124CE45CDBB2E4B2D47103704023C4
:102DD00019420ED0117919420BD00D4B00211970F8
:102DE0000C4B1B688B4202D00B49097819722C23BB
:102DF000D37030BD00B00640AC0700204107002072
:102E00006B070020B4070020AD0700204207002018
:102E100040070020B0070020AB070020204B802295
:102E2000196852010A431A601E4A002313701E4A91
:102E300013701E4A13701E4A13701E4A13701E4BE5
:102E40001B78062B04D0072B05D11C4A1C4B01E034
:102E50001A4A1C4B1A601C4B1B78082B05D0142BEC
:102E600007D1D1229200194B02E0D122184B9200D7
:102E70001A60184BC204D20E1A70C0B200225870E9
:102E80009A702C22DA70144B144A19680A40802177
:102E9000C9030A431A60124B8022D2011A6070479C
:102EA0003480044028080020BD070020300800209E
:102EB00029080020BC07002099020020130300000D
:102EC00008C0044010C004409A02002014C004400E
:102ED0000CC0044000C006400CE400E0FFFF00FF0F
:102EE00000E100E010B5124B1322997891430322C0
:102EF00002400A43410701D510210A439A700F226C
:102F00000B490240042A03D18A79402422438A7162
:102F10005A7910218A43084200D00A435A719A799B
:102F200010218A43840600D50A439A7110BDC04619
:102F300000C0064008B5124B1B68DA041ED5114BC1
:102F40001B78DBB2002B02D0FFF786F9F7E70E4AB9
:102F50008021C90111600D4A0D49D3700422FF324E
:102F60000A600C490A600C4A13700C4A13700C4B2F
:102F70001B68002B02D00B4A12781A7108BDC0469C
:102F800034800440BC07002080E100E000C006401F
:102F900008C004400CC0044028080020BD070020E1
:102FA000B8070020E607002038B5041C0B4B1D783D
:102FB000EDB2002DFAD1201C0121FDF7B1FF291C33
:102FC000201CFDF77BFF0C225443054B054AE158BA
:102FD0001C191160044B227A1A7038BDBC070020FE
:102FE000084E00002C0800202708002030B50029DA
:102FF00001D080231843154A1378141C984224D01A
:10300000134A1268D5041FD57F221340082B04D021
:10301000142B05D100220F4B01E00F4B00221A6048
:103020004423002900D060237F220240082A06D0D2
:10303000142A09D1C02292001343064A03E0C02299
:1030400092001343044A1360207030BD9A0200209E
:103050003480044014C004400CC0044010B50F4A32
:103060001378984218D00E490968CC0413D5062B62
:1030700004D0072B05D100210A4B01E00A4B0021A7
:103080001960062804D0072805D10849054B01E03E
:103090000649054B1960107010BDC046990200200A
:1030A0003480044008C0044010C0044013030000F2
:1030B00038B50E4B1A680023D10414D50C4C1A28CD
:1030C00010D80C2343430B4A0B4D9958D3181B7A45
:1030D000216001212B70FDF723FF23682A781A72E3
:1030E000012300E02360181C38BDC0463480044032
:1030F000B8070020084E0000E607002000207047B7
:10310000F8B5214B071C1B68DA043BD51F4B1B6825
:10311000002B02D01E4A12781A711E4E00233478FA
:1031200027220134A2425B415B421C401A4D2B789E
:10313000A3421CD1FFF7EAF8402813DC174A1379A1
:103140005BB2002BF2DA2B78002101332720984262
:10315000494149420B401249C95CDBB2C9B2D17145
:103160002B70E3E7FF28E1DDFFF776F8DEE70C4B95
:10317000FFB21F550B4B01221A70084BE4B2AC2270
:103180003470DA70F8BDC046348004402C0800204A
:1031900027080020300800202908002000C0064031
:1031A000BE070020BC07002038B5041C4518AC42FF
:1031B00004D02078FFF7A4FF0134F8E738BDFFFF03
:1031C00008B5044B1B78002B02D0FFF745F8F8E751
:1031D00008BDC046BC070020064B074A1B78107884
:1031E000DBB2C0B2834201D3273000E00138C01AFD
:1031F0007047C0463008002029080020054B187889
:10320000054BC0B21B78DBB2984200D24030C01AE6
:103210007047C04628080020BD07002010B5124B9B
:1032200012491A780B78D2B2DBB29A4219D0013324
:103230003F2400209C424041404203400C48DCB205
:10324000C05C0C700B49C0B2096800290BD09A42CF
:1032500000D24032D31A1A2B05DC074B1B780B72B5
:1032600001E00120404210BD28080020BD070020D9
:10327000E7070020B8070020E60700200A4B1A786D
:103280000A4B1B78DBB29A420AD0013300223F215D
:103290009942524152421340054AD05CC0B201E00B
:1032A000012040427047C04628080020BD0700208A
:1032B000E7070020064B1A78064BD2B21A70064B6D
:1032C0001B68002B02D0054A12781A727047C0465C
:1032D000BD07002028080020B8070020E6070020CE
:1032E00030B52E4A1379990624D52D49D4790B7817
:1032F000002001333F259D42404140420340294880
:10330000E4B20078834203D02748C454D8B208708E
:103310002649086800280DD025490978C9B28B4292
:1033200001D35B1A01E05B1A4033272B02DD214BEE
:103330001B780371D178194CC9B24BB2002B1ADA41
:1033400023795BB2002B16DA1B4B19481D780378E2
:10335000DBB29D4202D16C23E3700CE00133002408
:1033600027259D42644164422340144CE45CDBB257
:10337000E4B2D4710370402319420ED0117919427E
:103380000BD00F4B002119700E4B1B688B4202D0E3
:103390000D49097819722C23D37030BD00C0064046
:1033A00028080020BD070020E7070020B8070020FC
:1033B00029080020E607002030080020BE07002072
:1033C000BC0700202C080020270800201FB572B67B
:1033D000154B70221A70154A41211170144A0F21A1
:1033E000117080221A701A7852B2002AFBDA114B3F
:1033F000186862B6104B984201D80A23584301ACB2
:10340000211C0A22FEF7AEFF0023E15C0B4A0029D3
:1034100005D058001018013341800A2BF5D1013333
:103420005B0013701FBDC046000002400700024051
:1034300006000240080002407F96980078030020B2
:1034400008B50368C9B21B68984708BD08B503688A
:10345000C9B21B68984708BD08B50368C9B21B68A4
:10346000984708BD08B50368C9B21B68984708BDEE
:1034700008B5044B4808C01800F0A2FAFEF79AFFFE
:1034800008BDC046C0C62D0010B5064B4808C01880
:10349000141C00F095FAFEF78DFF201CFEF7FEFFCE
:1034A00010BDC046C0C62D0008B5FFF71FF808BD07
:1034B00008B5081CFFF754F808BD08B5081CFFF74D
:1034C000B7F808BD08B5081C111CFFF76BF808BD5C
:1034D00008B5081CFFF7E4F8431E9841C0B208BDC8
:1034E00008B5081CFFF702F9431E9841C0B208BD99
:1034F00008B5FFF77BF908BD08B5FFF7B7F908BDB8
:1035000008B5FFF783F908BD08B5FFF751F908BD05
:1035100008B5FFF7C7F908BD08B5FFF755F908BDAD
:1035200008B5081CFFF7E4F8012008BD08B5081C21
:10353000FFF7DEF8012008BD10B5081C141C111C93
:10354000FFF72AF9201C10BD38B5081C0D1C01F02E
:1035500023F9041C211C281CFFF71EF9201C38BD70
:103560007047FFFF044B00221A711A73FA21034AB5
:10357000890099601A60704734080020D84F000015
:1035800008B50368C9B21B68984708BD08B5036849
:10359000C9B21B68984708BD08B50368C9B21B6863
:1035A000984708BD08B50368C9B21B68984708BDAD
:1035B00008B5044B4808C01800F002FAFFF7E8F914
:1035C00008BDC04660E3160010B5064B4808C01899
:1035D000141C00F0F5F9FFF7DBF9201CFFF720FAC7
:1035E00010BDC04660E3160008B5FFF741FA08BDFC
:1035F00008B5081CFFF776FA08BD08B5081CFFF7E8
:1036000094FA08BD08B5081C111CFFF78DFA08BD17
:1036100008B5081CFFF78AFA431E9841C0B208BDDE
:1036200008B5081CFFF7A8FA431E9841C0B208BDB0
:1036300008B5FFF721FB08BD08B5FFF75DFB08BD26
:1036400008B5FFF729FB08BD08B5FFF7F7FA08BD75
:1036500008B5FFF76DFB08BD08B5FFF7FBFA08BD1D
:1036600008B5081CFFF78AFA012008BD08B5081C38
:10367000FFF784FA012008BD10B5081C141C111CAA
:10368000FFF7D0FA201C10BD38B5081C0D1C01F046
:1036900083F8041C211C281CFFF7C4FA201C38BD29
:1036A0007047FFFF044B00221A711A73FA21034A74
:1036B000890099601A607047440800203850000063
:1036C00008B50368C9B21B68984708BD08B5036808
:1036D000C9B21B68984708BD08B50368C9B21B6822
:1036E000984708BD08B50368C9B21B68984708BD6C
:1036F00008B5044B4808C01800F062F9FFF78EFBCC
:1037000008BDC04660E3160010B5064B4808C01857
:10371000141C00F055F9FFF781FB201CFFF7E2FBBA
:1037200010BDC04660E3160008B5FFF703FC08BDF6
:1037300008B5081CFFF738FC08BD08B5081CFFF7E2
:103740008DFC08BD08B5081C111CFFF74FFC08BD17
:1037500008B5081CFFF7ACFC431E9841C0B208BD79
:1037600008B5081CFFF7CAFC431E9841C0B208BD4B
:1037700008B5FFF743FD08BD08B5FFF77FFD08BD9D
:1037800008B5FFF74BFD08BD08B5FFF719FD08BDEB
:1037900008B5FFF78FFD08BD08B5FFF71DFD08BD93
:1037A00008B5081CFFF7ACFC012008BD08B5081CD3
:1037B000FFF7A6FC012008BD10B5081C141C111C45
:1037C000FFF7F2FC201C10BD38B5081C0D1C00F0E2
:1037D000E3FF041C211C281CFFF7E6FC201C38BD5D
:1037E0007047FFFF044B00221A711A73FA21034A33
:1037F000890099601A6070475408002098500000B2
:1038000008B50B4B1A68002A04D001221A60094B34
:103810001B689847084B1B78002B08D0074B1A6889
:10382000002A04D001221A60024B5B68984708BD49
:103830000C71034068080020660800201C710340DA
:10384000064B8022196812040A431A60044B0022B6
:103850001A60044B01221A707047C0463C80044035
:103860000070034066080020054B01221A60054BDA
:10387000054A19680A401A60044B00221A70704702
:10388000007003403C800440FFFF7FFF660800207B
:1038900070B544780E4D0F4E23015A199B190E4DE9
:1038A0000669A40042606651002483601C601160B8
:1038B00003221A60094B417B094A18680904024037
:1038C0000A431A60074B8022D2031A6070BDC046BB
:1038D00000710340087103406808002014E400E010
:1038E000FFFF00FF00E100E0F8B50C4B061C1B7861
:1038F0000F1C002B01D1FFF7A3FF094D2C78002CE2
:1039000004D06B780020834207D10124301C7470EE
:10391000391CFFF7BDFF01202855F8BD66080020BF
:103920006408002008B5836800221A608021074BD4
:10393000C90319604178064B5A541A78002A04D1F9
:103940005B78002B01D1FFF78FFF08BD80E100E01D
:103950006408002070B50378041C0E1C151C002B95
:1039600003D0FFF7DFFF002323702661201C291CF2
:10397000FFF7BAFF002802D00123237000E0207077
:10398000207870BD037810B5041C002B01D0FFF720
:10399000C9FF0023237010BD02B4714649084900D5
:1039A000095C49008E4402BC7047C04603B47146AE
:1039B000490840004900095A49008E4403BC704739
:1039C000002934D00123002210B488422CD30124D2
:1039D0002407A14204D2814202D209011B01F8E767
:1039E000E400A14204D2814202D249005B00F8E720
:1039F000884201D3401A1A434C08A04202D3001B4C
:103A00005C0822438C08A04202D3001B9C0822437E
:103A1000CC08A04202D3001BDC082243002803D0BC
:103A20001B0901D00909E3E7101C10BC70470028EE
:103A300001D00020C04307B4024802A14018029000
:103A400003BDC046190000000029F0D003B5FFF700
:103A5000B9FF0EBC4243891A1847C0467047C0469A
:103A60008446081C6146FFE71FB500F001FA0028F4
:103A700001D40021C8421FBD10B500F087F94042B3
:103A8000013010BD10B500F0F3F9002801DB002073
:103A900010BD012010BDC04610B500F0E9F90028A6
:103AA00001DD002010BD012010BDC04610B500F0A2
:103AB00097F9002801DC002010BD012010BDC04690
:103AC00010B500F08DF9002801DA002010BD0120AA
:103AD00010BDC0461C2101231B04984201D3000CD9
:103AE00010391B0A984201D3000A08391B09984271
:103AF00001D30009043902A2105C40187047C04687
:103B000004030202010101010000000000000000A6
:103B10009E2110B5C905041CFFF7D2FF002803D170
:103B2000201C00F091FC10BD9E21C905201C00F056
:103B300015FB00F089FC80231B06C018F3E7C04684
:103B4000F0B55F4656464D464446F0B44602450041
:103B5000C00F85B00F1C760A2D0E804641D0FF2D78
:103B600026D08024240400212643F6007F3D894688
:103B70008B46F90F7C027800640A000E00918A4699
:103B80003CD0FF2834D080231B041C430023E400D6
:103B90007F380193009F4346019A7B4049469C46EB
:103BA00011430F2900D971E0764F89007F58BF4635
:103BB000002E3ED10822022391469B46D9E75A4661
:103BC000341CC24601920199022937D0032900D141
:103BD000CFE0012900D0ABE053460B400022002685
:103BE00032E0002E19D10421012289469346C0E714
:103BF000221C531E9A4102320192CBE70127019702
:103C0000002CC7D0201CFFF765FF431F9C40762384
:103C10005B420021181A0191BCE7301CFFF75AFFE4
:103C20007625431F9E406D4200232D1A99469B46E0
:103C30009FE70C23032199468B469AE7D44601233C
:103C400067463B40FF2200267602D205700ADB075A
:103C50001043184305B03CBC90469946A246AB467B
:103C6000F0BD80260023F603FF22EDE700220026A8
:103C7000EAE78020C00306423BD0044239D1061C4B
:103C800026437602760A009BFF22DDE7281A03907E
:103C900076016401A64239D3361B1A220123012082
:103CA000311C5B007600002901DBB44201D8361BD1
:103CB0000343013A002AF3DC741EA641341C1C4362
:103CC000039A7F32002A27DD630704D00F232340A5
:103CD000042B00D00434270103D52B4B039A1C403E
:103CE0008032FE2A0BDD012361460B40FF220026B5
:103CF000AAE706437602760A4346FF22A4E7A40118
:103D000001236746660AD2B23B409DE7039F1B2210
:103D1000013F03970023C2E77E23039F5B42DB1B27
:103D20001B2B07DD012361460B40002200268BE799
:103D3000D446C5E7221CDA40039B9E339C40231CDB
:103D40005C1EA34113435A0704D00F221A40042AD1
:103D500000D004335F0105D5012361460B400122E9
:103D6000002671E79E01624601231340760A002275
:103D70006AE78026F60326437602760A5346FF2238
:103D800062E7C046F0500000FFFFFFF74A0243021F
:103D900070B55C0A550A43004A001B0EC60F120E8E
:103DA000C90FFF2B05D0FF2A08D0012093420BD06A
:103DB00070BD0120002CFBD1FF2AF6D10120002D7F
:103DC000F6D101209342F3D1AC42F1D18E4205D01D
:103DD000002BEDD1201C441EA041E9E70020E7E7BD
:103DE0004A024302F0B55C0A550A43004A001B0E22
:103DF000C60F120EC90FFF2B31D0FF2A34D0002B73
:103E000016D1604260418446002A14D0002820D197
:103E10008E4217D1934215DC04DBAC4212D800204D
:103E2000AC4212D2704270414042012318430CE070
:103E3000002AEDD194466F426F416046002805D1BB
:103E4000002FE5D0704201231843F0BD0020002F61
:103E5000FBD148424841404201231843F5E7002C7A
:103E6000CBD002204042F0E7002DC8D0F9E7C04691
:103E70004A024302F0B55C0A550A43004A001B0E91
:103E8000C60F120EC90FFF2B27D0FF2A29D0002BF7
:103E900010D0002A15D194466F426F416046002829
:103EA00015D00020002F04D1484248414042012350
:103EB0001843F0BD604260418446002AECD00028DF
:103EC000F2D18E4211D0704201231843F1E7002F46
:103ED000F7D0704201231843EBE70220002CE8D111
:103EE000D3E70220002DE4D1D1E79342EBDC04DBE1
:103EF000AC42E8D80020AC42DBD270427041404274
:103F000001231843D5E7C046F0B55F4656464D46F7
:103F10004446F0B44402460083B00F1C640A360ED7
:103F2000C50F002E41D0FF2E22D080231B0400207D
:103F30001C43E4007F3E82468046391C4B007F02D2
:103F4000C90F7F0A1B0E8B463BD0FF2B34D080223B
:103F500012041743FF007F3B00215A466A4001923A
:103F600052460A430F2A63D87A48920082589746ED
:103F7000002C3FD10822022392469846DDE70195A6
:103F8000404602282AD1019A01251540FF2300242A
:103F90006402DB05600AED071843284303B03CBC0C
:103FA00090469946A246AB46F0BD002C27D104208E
:103FB000012282469046C0E7391C4A1E91410231D7
:103FC000CBE70121002FC8D0381CFFF783FD431F2A
:103FD0009F4076235B421B1A0021BEE7032800D1D5
:103FE000AEE001284FD1019842461040C5B20023EF
:103FF0000024CDE70C2303209A4680469DE7201C31
:10400000FFF768FD7626431F9C4076420023361A50
:104010009A46984691E780240025E403FF23B7E7FA
:104020005B463C1C01938846AAE73C1C8846A7E7F0
:10403000250C24043A0C240C3F04F6183F0C211CD8
:10404000231C794353436F435543FB180A0C9B18B9
:10405000B1469F4202D980225202AD1809041A04C7
:10406000090C521894011B0C611E8C41920EED1824
:104070001443AD012C43230105D50122630801201F
:10408000144081441C434B467F33002B2DDD6007D9
:1040900004D00F222240042A00D00434220103D588
:1040A0002D4B1C404B468033FE2B17DD019B012519
:1040B0001D400024FF236BE78020C003044208D08A
:1040C000074206D1041C3C436402640A5D46FF2398
:1040D0005EE704436402640AFF2359E70198A401E0
:1040E0000125640ADBB2054052E77E235B424A4663
:1040F0009B1A1B2B05DD019B01251D40002400237D
:1041000046E7221CDA404B469E339C40231C5C1E33
:10411000A3411343580704D00F221A40042A00D0A9
:1041200004335A0105D5019B01251D4000240123BC
:104130002EE701989C010125640A0540002327E72A
:104140008027FF03019B3C43640201251D40640A54
:10415000FF231DE730510000FFFFFFF7F8B5C20F46
:10416000430244004D024800240E161C9B09000E19
:10417000C90FAD09FF2800D183E0012779408A42A9
:104180005CD0221A002A00DC8EE000281ED1002D0F
:1041900000D07AE0580704D00F221A40042A00D039
:1041A00004338021C90401221940324000293AD049
:1041B0000134FF2C00D183E09B015B0A5B02E4B277
:1041C000E405580AD20720431043F8BDFF2CE1D084
:1041D0008021C9040D431B2A00DD31E1291C202068
:1041E000D140821A95406A1E95410D435B1B5801D0
:1041F000D0D59B019F09381CFFF76CFC421F9740EC
:1042000094425FDC141B1F231B1B3A1C9F40611C44
:104210003B1CCA405F1EBB4113430024BAE7131E78
:10422000B8D100230022DB08FF2C04D1002B47D09B
:104230008020C00303435B025B0ABFE7211A002909
:1042400044DD002827D0FF2CA4D08020C0040543E3
:104250001B2900DDF2E0281C2027C840791A8D4078
:10426000691E8D4105435B19590100D492E7013461
:10427000FF2C59D0734901221A400B405B081343AD
:1042800088E7002D00D07AE777E7013A002AADD021
:10429000FF2CA0D17EE7002D00D17BE7013900295A
:1042A000E1D0FF2CD4D175E7002A1BD1621CD2B219
:1042B000012A4BDD5F1B7A0123D5EF1A0E1C9AE70A
:1042C00000237BE75F4BA41A3B4063E7002946D1FC
:1042D000611CC8B2012829DDFF2924D0EB185B0836
:1042E0000C1C57E7002C13D0FF2818D08024E404BE
:1042F000524223431B2A4DDD0123EB1A041C0E1CE2
:1043000075E7002F00D076E70023002200248AE71B
:10431000002B3BD0D243002AEFD0FF28EAD12B1C40
:10432000FF240E1C36E7FF2400237CE7002C5CD121
:10433000002B00D180E0002D00D12BE75B19580144
:1043400000D427E73F4A0124134023E7002C15D16E
:10435000002B40D1002D63D02B1C0E1C1AE7002C23
:1043600021D1002B54D0C943002904D0FF284CD0C0
:104370001B2958DD01235B19041C75E7002B19D19B
:10438000002D48D02B1C0E1CFF2403E72B1C041C03
:104390000E1CFFE61C1C2026D440B21A93405A1E65
:1043A00093412343A9E7FF282FD08024E404494206
:1043B0002343DDE7FF24002D00D1EBE68022DB085C
:1043C000D203134204D0ED08154201D12B1C0E1C60
:1043D000DB00FF24DEE6002D00D1DBE65A1B500196
:1043E00000D41CE7EB1A0E1CD4E6002B0DD0FF24E2
:1043F000002D00D1CEE68022DB08D2031342E7D0A5
:10440000ED081542E4D12B1CE2E72B1CFF24C1E68A
:104410002B1C041CBEE6802300229B04FF2402E721
:10442000231C0022FFE61C1C2027CC40791A8B405D
:10443000591E8B4123439EE72B1CABE6012512E757
:104440000125D3E6FFFFFFFB4302590A4300C20FD9
:104450001B0E00207E2B0DDD9D2B0CDC802000042C
:104460000143952B0ADC9620C31AD9404842002A02
:1044700000D1081C7047034BD018FBE7963B9940CE
:10448000F4E7C046FFFFFF7F10B5041E33D0FFF7EF
:1044900021FB9E231B1A962B09DC083884406402FA
:1044A000640ADBB26402DB05600A184310BD992B75
:1044B0000ADD0522121A211CD1400A1C011C1B31E5
:1044C0008C40611E8C411443052801DD421F94403D
:1044D000144A2240610704D00F210C40042C00D064
:1044E000043251010AD59F23181AFF2816D09401CF
:1044F000640AC3B2D6E700230024D3E7D208FF2B17
:1045000003D05402640ADBB2CCE7002A06D0802430
:10451000E40314436402640AFF23C3E7FF23002477
:10452000C0E7C046FFFFFFFB08B5031C081C191CB1
:1045300000F002F808BDFFFF38B5051C05480C1C4B
:10454000131C002804D00220291C221C00E000BFFC
:1045500038BDC0460000000070B50E4B0E4D002463
:10456000ED1AAD101E1CAC4204D0A300F3589847BE
:104570000134F8E700F048FE084B094D0024ED1A1D
:10458000AD101E1CAC4204D0A300F3589847013470
:10459000F8E770BD145200001452000014520000DD
:1045A0003052000010B50023934203D0CC5CC454B9
:1045B0000133F9E710BD70B5814201D300230CE04F
:1045C0008C18A042FAD28518131C013B0BD3514220
:1045D0006618F65C6918CE54F7E7934203D0CC5CBA
:1045E000C4540133F9E770BD031C8218934202D012
:1045F00019700133FAE7704730B5002940D004390B
:104600000B68002B00DAC9181E4A1368141C002B13
:1046100002D14B60116033E099420FD208680A184A
:104620009A4205D113685268C01808604A6000E0D9
:104630004B60216024E08A4203D8131C5A68002A88
:10464000F9D11D685C198C420BD10968691858189A
:104650001960904214D114685268091919605A609F
:104660000EE08C4202D90C23036009E008680C18A4
:10467000944203D114685268001908604A60596076
:1046800030BDC0467408002070B50323CD1C9D4387
:104690000835061C0C2D01D20C2501E0002D3FDB56
:1046A0008D423DD3204B1C681A1C211C002913D0BD
:1046B0000868431B0DD40B2B02D90B60CC181EE0ED
:1046C0008C4202D1636813601AE0486860600C1C79
:1046D00016E00C1C4968E9E7144C2068002803D157
:1046E000301C00F025F82060301C291C00F020F858
:1046F000431C15D0C41C03239C4384420AD125606B
:10470000201C0B300722231D9043C31A0BD05A42A2
:10471000E25008E0211A301C00F00AF80130EED116
:104720000C233360002070BD740800207008002046
:1047300038B5074C0023051C081C2360FDF7DEFD7F
:10474000431C03D12368002B00D02B6038BDC0462A
:10475000D00800200EB400B59CB01DAB04CB822263
:1047600002A992008A810A4A02908A604A61012263
:104770005242CA81074A086110681D9A019300F0ED
:1047800073F8029A002313701CB008BC03B01847DA
:10479000FFFFFF7FF00300200023C25C0133002AEB
:1047A000FBD1581E7047FFFFF0B58D6885B0071C20
:1047B0000C1C03920193AB4245D390228B89D2000B
:1047C00013423DD062690326564309692068F20FFF
:1047D000401A96190290021C0198013212187610A4
:1047E000964200D2161C381C5A050FD5311CFFF713
:1047F0004BFF051E13D0029A2169FFF7D3FEA28951
:10480000184B134080221343A38111E0321C00F0A7
:10481000B0FA051E0CD1381C2169FFF7EDFE0C2300
:104820003B60A389402213430120A381404217E04B
:10483000029B2561ED1825606661019DF61AA66050
:104840000198A84200D2019D2A1C20680399FFF715
:10485000B2FEA2680020531BA36023685D19256087
:1048600005B0F0BD7FFBFFFFF0B59FB0039005934F
:104870008B890E1C171C19060FD53269002A0CD122
:104880004021FFF701FF30603061002803D1039918
:104890000C230B60C9E04023736106AD00236B61FC
:1048A00020236B763023AB763C1C2378002B03D17E
:1048B000E21B029211D003E0252BF9D00134F4E77A
:1048C0000398311C3A1C029BFFF76EFF013000D1A8
:1048D000A6E06969029A8B186B612378002B00D1DE
:1048E0009EE0012252426A606A4600235B32013434
:1048F0002B60EB60AB601370AB654E4F2178381CBA
:10490000052200F02BFA002807D0C71B2B680120D6
:10491000B840184328600134EFE72B68D90603D567
:104920006A4620215B3211701A0703D56A462B2193
:104930005B32117022782A2A01D0099B0EE0059A79
:10494000111D12680591002A01DB099204E0524210
:10495000EA60022213432B60013409E02278303AE6
:10496000092A04D80A214B4301349B18F6E709931E
:1049700023782E2B18D163782A2B09D1059B02347A
:104980001A1D1B680592002B0DDA01235B420AE019
:10499000013400232278303A092A04D80A214B43F3
:1049A00001349B18F6E70793234F2178381C032224
:1049B00000F0D4F9002806D0C71B2B684020B8406F
:1049C00018432860013421781C480622671C297688
:1049D00000F0C4F9002812D0194B002B06D1059B1A
:1049E0000722073393430833059314E005AB009384
:1049F0000398291C321C134B00E000BF07E005ABF5
:104A000000930398291C321C0E4B00F091F804907F
:104A10000499013104D06A69049953186B6143E722
:104A2000B3895A0601D40B9801E0012040421FB01F
:104A3000F0BDC04672510000785100007C5100006A
:104A400000000000A9470000F7B5151C01930A6992
:104A50008B68061C0C1C934200DA131C221C2B6072
:104A600043321278002A01D001332B60206880067F
:104A700002D52B6802332B60216806270F401FD018
:104A8000231C43331B785A1E9341226892061FD57C
:104A9000E11840313020C870211C5A1C453109787A
:104AA000A21840320233D17012E0221C301C01994E
:104AB00019320123089FB847013011D0009F0137F8
:104AC0000097E0682968009F431A9F42EDDBD7E713
:104AD000221C301C01994332089FB847013002D193
:104AE0000120404223E0206806212B68E268014053
:104AF0000025042903D1D51AEB43DB171D40A2681A
:104B000023699A4201DDD31AED1800270097009F10
:104B1000AF420BDA221C301C01991A320123089F84
:104B2000B8470130DCD0009F0137EFE70020FEBD21
:104B3000F0B50D1C8BB04335069205900793049594
:104B40000B7E0C1C109A6E2B00D1A7E011D8632BA2
:104B500022D009D8002B00D1B0E0582B00D0C0E003
:104B600045310B707B4D4EE0642B1CD0692B1AD065
:104B7000B7E0732B00D1A5E009D86F2B29D0702B9B
:104B800000D0AEE00E68202333430B6036E0752B77
:104B90001FD0782B32D0A4E013680D1C191D4235AC
:104BA00011601B689FE0216813680E0603D5191D6C
:104BB00011601E6805E04806F9D5191D1160002135
:104BC0005E5E644B002E3BDA049D2D2276422A70F5
:104BD00036E0216813680E0603D5191D11601E68A2
:104BE00004E04806F9D5191D1E881160594B227E34
:104BF000039308276F2A1ED00A271CE0231C782164
:104C00004533554D197011682368081D03951060D0
:104C10001E0601D50E6802E05806FBD50E88D9079E
:104C200002D52022134323601027002E03D12268CF
:104C300020239A432260231C002243331A7001E090
:104C400003930A276368A360002B03DB2568042213
:104C500095432560002E02D1049D002B0ED0049DAB
:104C6000301C391CFEF7F0FE0398013D435C301CFC
:104C70002B70391CFEF7A4FE061EF1D1082F09D1B6
:104C80002168C90706D5626823699A4202DC013DA2
:104C900030232B70049E731B23612AE0086813687D
:104CA0004969050604D5181D10601B68196005E0E8
:104CB0004606F8D5181D10601B6819800023236173
:104CC000049D16E01368191D11601D68281CFFF76C
:104CD00063FD63682061984200D9236120696060A8
:104CE00004E0251C42352B7001232361049E002320
:104CF0003370079E05980096211C09AA069BFFF7B2
:104D0000A3FE013002D10120404221E02A1C059877
:104D100006992369079DA8470130F4D02668B60795
:104D200005D4099BE068984212DA181C10E00025AF
:104D3000E0680999431A9D42F3DA221C0598069906
:104D400019320123079EB0470130DCD00135EFE76F
:104D50000BB0F0BD8351000094510000C9B282181D
:104D6000904204D003788B4202D00130F8E7002053
:104D70007047F8B5061C0C1C151C002904D1111C29
:104D8000FFF782FC041C18E0002A03D1FFF734FC73
:104D90002C1C12E000F013F8A8420ED2301C291C83
:104DA000FFF772FC071E07D0211C2A1CFFF7FAFB35
:104DB000301C211CFFF720FC3C1C201CF8BD0439D2
:104DC0000B68181F002B02DAC8581B18181F7047F1
:104DD0004720256320256C64202564202564006518
:104DE0006E64007420003300556E6B6E6F776E201A
:104DF000636F6D6D616E643A00050E08090D0C0657
:104E0000070F0B0044171A1B420000F840A0044093
:104E100001000000420000F844A00440020000002D
:104E2000C00000F800C0044001000000000000F8CD
:104E30000490044002000000000000F808900440C4
:104E400004000000C00000F81CC004408000000006
:104E5000C00000F810C0044010000000C00000F8BE
:104E600008C0044004000000C00000F80CC004406A
:104E700008000000800000F80CB0044008000000AA
:104E8000800000F810B0044010000000800000F81E
:104E900018B0044040000000800000F81CB004403E
:104EA00080000000800000F814B0044020000000E2
:104EB000C00000F804C0044002000000800000F8B8
:104EC00000B0044001000000400000F800A00440D1
:104ED00001000000400000F804A0044002000000AF
:104EE000400000F80CA0044008000000400000F85A
:104EF00008A0044004000000C00000F814C00440F2
:104F000020000000C00000F818C00440400000006D
:104F1000800000F804B0044002000000800000F8A7
:104F200008B0044004000000020100F850D0044022
:104F300010000000020100F854D0044020000000DE
:104F4000030100F878D00440400000000D0AFFFF84
:104F50000000000000000000252200002F220000B9
:104F6000052200000D220000152200001D22000075
:104F70001519151519FFFFFF000100009B02002005
:104F80001200000000020000C60200209500000090
:104F90000003000074030020000000000103090466
:104FA000AE02002000000000020309045C030020A0
:104FB0000000000003030904780300200000000043
:104FC000000000000000000000000000FFFFFFFFE5
:104FD000000000000000000021350000393500000D
:104FE000F134000001350000F934000009350000FB
:104FF0007134000089340000A9340000B13400008D
:10500000BB340000C5340000D1340000E13400009E
:105010001135000019350000413400004D34000006
:105020005934000065340000493500002D3500007A
:10503000000000000000000061360000793600002A
:105040003136000041360000393600004936000094
:10505000B1350000C9350000E9350000F135000028
:10506000FB35000005360000113600002136000037
:105070005136000059360000813500008D350000A2
:1050800099350000A5350000893600006D36000016
:105090000000000000000000A1370000B937000048
:1050A0007137000081370000793700008937000030
:1050B000F1360000093700002937000031370000C1
:1050C0003B370000453700005137000061370000D2
:1050D0009137000099370000C1360000CD3600003E
:1050E000D9360000E5360000C9370000AD370000B2
:1050F0008C3C00003E3C00006C3C0000C63B0000C5
:105100006C3C0000623C00006C3C0000C63B0000B0
:105110003E3C00003E3C0000623C0000C63B0000FC
:10512000BE3B0000BE3B0000BE3B0000723C0000E6
:10513000304000002A4000002A40000020400000CB
:10514000803F0000803F000016400000204000002B
:10515000803F000016400000803F0000204000001B
:105160007E3F00007E3F00007E3F0000B840000010
:105170004300232D302B2000686C4C00656667458A
:1051800046470030313233343536373839414243BF
:105190004445460030313233343536373839616270
:1051A0006364656600FFFFFF000000000000000070
:1051B00000000000000000000000000000000000EF
:1051C00000000000000000000000000000000000DF
:1051D00000000000000000000000000000000000CF
:1051E00000000000000000000000000000000000BF
:1051F00000000000000000000000000000000000AF
:105200000000000000000000F8B5C046F8BC08BC73
:105210009E46704739040000F90A0000D1210000C1
:105220003D22000065350000A5360000E53700008E
:105230000000000030040020A404002040040020EE
:1052400010040020900400200A040000FFFFFFFF6C
:10525000FF000000D408002001070812010101002E
:10526000000040C01685040002010203010018037B
:105270005400650065006E007300790064007500DD
:1052800069006E006F0009029500030100C032083A
:105290000B000202020104090400000102020100E5
:1052A000052400100105240101010424020605243F
:1052B0000600010705810310004009040100020AED
:1052C00000000007050202400000070583024000BD
:1052D000000904020002010300000724010001414B
:1052E0000006240201010006240202020009240330
:1052F0000103010201000924030204010101000964
:105300000505024000000000052501010109058492
:1053100002400000000005250101030018035400AD
:10532000650065006E007300790020004D004900A3
:1053300044004900040309040C03000000000000BD
:10534000000000000000000000000000000000005D
:1053500000000000A8510000C8510000E851000002
:10536000000000000000000000000000000000003D
:10537000705100000000000000000000000000006C
:10538000000000000000000000000000000000001D
:10539000000000000000000000000000000000000D
:1053A00000000000000000000000000000000000FD
:0453B0009003002046
:00000001FF
